:020000040800F2
:10000000A00700209D010008732800086B2300084A
:1000100071280008250C0008E933000800000000E2
:10002000000000000000000000000000972D000804
:10003000D90C000800000000952D0008992D00083B
:10004000B7010008B7010008B7010008B7010008B0
:10005000B7010008B7010008B7010008B7010008A0
:10006000B7010008B7010008B7010008B701000890
:10007000290C0008B7010008B7010008B701000803
:10008000B7010008B7010008B7010008B701000870
:10009000B7010008B7010008B7010008F90C000813
:1000A000B7010008B7010008B7010008B701000850
:1000B000B7010008B70100081D2E0008B7010008AD
:1000C000B7010008B7010008B7010008B701000830
:1000D000B7010008B7010008B7010008B701000820
:1000E000DB0C0008B7010008B7010008B7010008E1
:1000F000B7010008B7010008B7010008B701000800
:10010000B7010008B7010008B7010008B7010008EF
:10011000B7010008B7010008B7010008B7010008DF
:10012000B7010008B7010008B7010008B7010008CF
:10013000B7010008B7010008B7010008B7010008BF
:10014000B7010008B7010008B7010008B7010008AF
:10015000B7010008B7010008B7010008B70100089F
:10016000B7010008B7010008B7010008B70100088F
:10017000B7010008B7010008B7010008000000003F
:10018000B7010008B7010008DFF80CD000F0B6FA9C
:10019000004800472D350008A0070020064880478A
:1001A00006480047FEE7FEE7FEE7FEE7FEE7FEE75C
:1001B000FEE7FEE7FEE7FEE70D2E000889010008D6
:1001C0002DE9F05F0546002092469B46884606468C
:1001D000814640241BE0284641464746224600F01F
:1001E00089F953465A46C01A914110D31146184610
:1001F000224600F070F92D1A67EB01084F4622469F
:100200000120002100F067F917EB00094E41201E84
:10021000A4F10104DFDC484631462A464346BDE8E6
:10022000F09FD2B201E000F8012B491EFBD27047CB
:100230000022F6E710B513460A4604461946FFF7B2
:10024000F0FF204610BD2DE9FE4F804681EA0300F5
:10025000C00F0C46009021F0004123F00045B8EBA0
:100260000200A94105D24046214690461C460B4655
:10027000024623F00040104347D0270DC7F30A0081
:10028000C3F30A510290401A019040286BDAC3F37D
:10029000130040F4801B0098924620B10023D2EB5B
:1002A000030A63EB0B0B01985946C0F1400250461C
:1002B00000F011F906460D4650465946019A00F0E5
:1002C00029F910EB08006141002487EA115284EA01
:1002D000E7731A4340D0009A62B3019A012A4FEAA9
:1002E000075215DC001B61EB02014FF0004202EAED
:1002F0000752CDE90042001C41F5801132462B46E1
:1003000000F0AEF903B0BDE8F08F40462146F9E7B2
:10031000001B61EB0201001C41F5801300185B41DA
:100320002018A2F5001747EB030140EAD570B61973
:100330006D4111E06D084FEA360645EAC0754FEA97
:100340000752001B61EB0201001C41F580114908B6
:100350004FEA30000019514132462B4603B0BDE848
:10036000F04F00F06EB90098012240000023D0EB5E
:10037000020263EBE073009821464FEAE074B8EBA9
:10038000000061EB0401E9E783F000435BE781F0E3
:10039000004158E72DE9FE4F81EA030404F00044D0
:1003A00021F0004100944FF0000B23F0004350EA8D
:1003B00001045ED052EA03045BD0C3F30A54C1F3D4
:1003C0000A552C44A4F2F3340194A0FB0254C1F367
:1003D000130141F48011C3F3130343F4801301FBB1
:1003E000024400FB034E840A970A44EA815447EA18
:1003F0008357A4FB076802958D0A05FB07854FEA22
:10040000932C04FB0C542705029D4FEA065847EA3B
:100410001637B5EB08056EEB070C870E920E47EA10
:10042000811742EA8312A7FB0201B6EB0B0164EBD2
:1004300000042B0D43EA0C335E1844EB1C50DA46E3
:100440005146E7FB0201C5F313044FEA0B3343EABD
:1004500014534FEA0432019C43EA0603A4F10C044E
:100460000294009CCDE900B400F0FAF803B0BDE8B6
:10047000F08F00200146F9E700F0004230F0004024
:100480000AD0C10D01F56071C0F3160042EA0151B6
:10049000C20840071143704700200146704701F031
:1004A000004330B421F0004150EA010206D00A0DA9
:1004B000A2F56072C1F31301002A02DC30BC0020F7
:1004C0007047440F44EAC104C100E01830BC00EB9F
:1004D000C25000F07FB8202A04DB203A00FA02F173
:1004E000002070479140C2F1200320FA03F3194322
:1004F00090407047202A04DB203A21FA02F00021C4
:10050000704721FA02F3D040C2F120029140084323
:1005100019467047202A06DBCB17203A41FA02F031
:1005200043EAE07306E041FA02F3D040C2F1200250
:1005300091400843194670470FB4002300B589B0B5
:100540000CA900910B996FF00042CB601E4B0693F3
:100550001E4B07930423CDE901321D4A089202463F
:100560006B46002000F076F909B05DF814FB70B519
:1005700086B006464FF0FF300091CDE90101002022
:1005800015460C4604903246694604A8FFF7D4FF8E
:1005900002460498211825B108B1084600E020461B
:1005A0002860049800280DD0002A02DD00988842B7
:1005B00008D0081B0094CDE901043246694604A81E
:1005C000FFF7BAFF06B070BD8D0A0008AB0A00083D
:1005D000210700080029A8BF7047401C490008BF38
:1005E00020F00100704710B4B0FA80FC00FA0CF063
:1005F00050EA010404BF10BC704749B1CCF120049B
:1006000021FA04F411FA0CF118BF01212143084327
:10061000A3EB0C01CB1D4FEA00614FEA102042BF53
:10062000002010BC704700EBC35010440029A4BF49
:1006300010BC7047401C490008BF20F0010010BCEE
:10064000704710B5141E73F1000408DA401C41F124
:10065000000192185B411A4301D120F0010010BD46
:100660002DE9F04D92469B4611B1B1FA81F202E0BC
:10067000B0FA80F220329046FFF72DFF04460F4675
:1006800040EA0A0041EA0B0153465A46084313D098
:10069000114653EA010019D0C8F140025046FFF755
:1006A00029FF05460E46504659464246FFF713FFBE
:1006B000084305D0012004E020463946BDE8F08D0E
:1006C0000020054346EAE0762C4337430A98630549
:1006D000E40AA0EB08000022FD0A44EA47540A306D
:1006E00002D500200146E9E7010510196941DDE95D
:1006F000084500196941BDE8F04DA2E7064C074DD9
:1007000006E0E06840F0010394E8070098471034E1
:10071000AC42F6D3FFF73CFDA4370008C43700080D
:10072000C0B24FF4F05100F0D1B900002DE9FF4FF5
:10073000087883B09946FF2805D0491C2D2804D09D
:100740000024002008E000200BE00124F9E700EB82
:10075000800003EB4000491C0B78FF2BF7D104B15C
:10076000404200230293147819461D462D2C01D0D7
:100770002B2C04D1521C2D2C13D000240294AA46F9
:100780001478FF2C0FD00A25A3FB057801FB058107
:100790004FF0000C03FB0C11521CE3194AEB010152
:1007A000EEE70124EAE7814453EA010002D019F59B
:1007B000C87F06DA03980021C0E9001107B0BDE840
:1007C000F08F0025AE4E2F46DFF8B882184600F0B5
:1007D00000FACDE90001B9F1000002DAC9F1000424
:1007E00000E004460023A74A1AEB030B42EB045A2D
:1007F00012E0E00707D02A46334638464146FFF765
:10080000C9FD074688462A46334610461946FFF773
:10081000C1FD05460E466410002CEAD1DDE9000159
:10082000B9F1000F5A46534606DA00F063F93A462A
:10083000434600F05FF905E0FFF7ACFD3A4643465A
:10084000FFF7A8FD029A0AB181F00041039AC2E9BC
:100850000001B3E72DE9FF4F1F468DB0D7E90146F0
:100860004FF0FF382E2045464FF000090B90B96934
:100870006D1C0E988847396A824688470028F6D151
:10088000BAF1FF3F0AD024F4D064002E11DDBAF192
:100890002B0F08D0BAF12D0F0BD102E0404611B05A
:1008A0008DE744F48064B9696D1C0E9888478246D0
:1008B000761E6946600501D52D2000E02B208DF8BD
:1008C000000001F1010B0DF1200809E0B9696D1C70
:1008D0000E98884782460F9844F40074761E05608F
:1008E000002E02DDBAF1300FF0D00B998A453ED1CF
:1008F00044F0800406E00F99681CA9F1010944F452
:1009000000740860B9696D1C761E0E98884782468F
:100910003028F0D02BE00B998A4505D1200603D46E
:1009200044F08004761E18E0504602F0A9FD08B39A
:100930000DF11301761E44F400748B4508D2AAF120
:1009400030000BF8010B200607D5A9F1010003E0E8
:10095000200602D409F101008146A00502D50F99B5
:10096000681C0860B9696D1C0E9888478246002E85
:10097000D1DC53E0002E51DDBAF1650F02D0BAF19F
:10098000450F4BD1A00549D5B9696D1C24F44074BD
:10099000761E0E9888478246002E0CDD2B2804D048
:1009A000BAF12D0F07D144F48074B9696D1C0E980B
:1009B00088478246761EE00501D52D2100E02B21D7
:1009C00008F8011BCDF82C8021E00DF12901761EDD
:1009D00044F4007488450CD2AAF1300010F0FF00F6
:1009E00088F8000002D10B99884509D908F101085F
:1009F00006E0E00501D5244801E042F20F7081468F
:100A0000B9696D1C0E98884782460F980560002EC4
:100A100004DD504602F034FD0028D6D1F9690E9865
:100A20008847FF208BF8000088F80000002006901F
:100A300007904B466A4608A906A8FFF777FEA0056F
:100A400002D46FF001002AE714F0240F0AD0E00767
:100A500014D1DDE906123868031D3B600068C0E967
:100A600000120BE0DDE90601FFF719FD0146E00782
:100A700004D13868021D3A600068016028460EE71C
:100A8000000014400000F03FF1D8FFFF426842B17F
:100A9000016811F8013B23B1521EC0E9001218464B
:100AA00070470121C160881E704742685AB1C3680F
:100AB000016843B983688B4205D0491E521CC0E9C6
:100AC0000012002070474FF0FF3070477F2801D997
:100AD000002208E0064A02EB5002C007127800D15B
:100AE000120902F00F0201209040084070470000F8
:100AF000643700082DE9F04D81EA030404F0004B4F
:100B000021F0004514464FF0000A23F0004150EA5E
:100B1000050220D054EA01021DD0C5F30A5702464F
:100B2000C5F31303C1F31300C1F30A5640F4801553
:100B300043F48013A7EB0608101BD64608F2FD38D5
:100B400073EB050002D308F1010801E092185B4144
:100B5000B8F1000F03DA00200146BDE8F08D002057
:100B60004FF48011064684460EE0171B73EB050711
:100B700005D3121B63EB050306434CEA010C49083D
:100B80004FEA300092185B4150EA0107EDD152EA7A
:100B9000030012D082EA040083EA0501084305D06D
:100BA000101BAB4106D20122002306E000224FF0C9
:100BB000004302E06FF0010253101AEB06004CEB09
:100BC000085110EB0A0041EB0B01BDE8F04DFFF7B7
:100BD00038BD0EB540F2334202920022CDE9002228
:100BE0001346FFF73DFD03B000BD30B58C1810F87B
:100BF000012B12F00F0301D110F8013B120906D1AD
:100C000010F8012B03E010F8015B01F8015B5B1E9B
:100C1000F9D101E001F8013B521EFBD1A142E6D31C
:100C2000002030BDFEE70000014800F06BB8000076
:100C30003C03002001681823CAB2103AB2FBF3F259
:100C4000054B6FF30901032A9B5CC36500D9091D9D
:100C500081650846704700004437000810B501461A
:100C600000208B698A6A4FF0C07453B1B3F5005FFE
:100C700015D072B1012A0CD0022A0AD0032A09D158
:100C800004E01AB1012A06D0022A03D1C96AC901B7
:100C900000D5012010BDC96AA142FAD010BD002ABA
:100CA000F7D0012AF2D0022AF3D0032AF3D010BDE4
:100CB00030B50468256825F48025256004686360E4
:100CC0008368402B036803D099600068C26030BD20
:100CD0009A600068C16030BD704710B54FF4006085
:100CE00000F0CAF94FF4805000F0C6F9BDE810409A
:100CF0004FF4804000F0C0B94FF4007000F0BCB970
:100D0000704700002DE9F84304464FF00009CDF884
:100D1000009063484FF41651A56D0068B0FBF1F7E1
:100D20002E6894F85C10082000FA01F131420FD0CF
:100D300021680A6852070BD50A6822F004020A608B
:100D400094F85C108840A860606D40F00100606518
:100D500094F85C104FF0010808FA01F0304208D016
:100D600021684969090604D5A860606D40F0020059
:100D7000606594F85C1004208840304208D02168F7
:100D80000968890704D5A860606D40F004006065BB
:100D900094F85C1010208840304218D0216809680F
:100DA000090714D5A86020680168490304D50068C4
:100DB000000308D5A16C07E00168C90503D40168E8
:100DC00021F008010160216C09B12046884794F8A0
:100DD0005C1020208840304231D021680968C90663
:100DE0002DD5A86094F8350005282068016806D044
:100DF000490347D5006800031DD4616C1CE021F055
:100E0000160101602068416921F080014161206C78
:100E100008B9A06C20B12068016821F008010160C8
:100E200094F85C103F208840A86084F8358084F8EE
:100E30003490216D1FE0E16B09B120468847606D59
:100E400000282BD0606DC00714D0052084F8350031
:100E50002068016821F0010101600098401C0090A9
:100E6000B84203D820680068C007F6D184F83580FE
:100E700084F83490E16C002910D001B02046BDE820
:100E8000F04308470168C905D5D4016821F0100175
:100E9000016084F8358084F83490CCE7BDE8F883AD
:100EA000240100202DE9F041044600F0F3F9064644
:100EB0005CB1022084F83500002584F834502068A5
:100EC000016821F0010101600DE00120BDE8F08121
:100ED00000F0E0F9801B052805D92020606503207B
:100EE00084F83500F2E720680068C007F0D1226876
:100EF000116820480140D4E901031843D4E90336BE
:100F00003343184363691843A3691843E3691843DB
:100F1000236A18430843616A042903D1D4E90B13F7
:100F200019430843106020684069666A20F0070191
:100F300030460E43012704280CD1A06A0643E06A1C
:100F400040B12046FFF78AFE20B14020606584F85A
:100F50003570BAE7206846612046FFF76BFE94F8CB
:100F60005C203F2191408160656584F835700020E8
:100F7000ACE700003F8010F02DE9F0410446866D9B
:100F800090F83400002501280DD0012084F83400A9
:100F900094F835700020012F07D084F83400022522
:100FA0002846BDE8F0810220FBE7022784F835706F
:100FB00060652046FFF77CFE94F85C103F20884077
:100FC000B0602068016841F016010160206C20B11A
:100FD0002068016841F0080101602068016841F063
:100FE00001010160DCE7000010B5204A204CB0F59B
:100FF000007F13D0B0F5804F1CD01E4AB0F5805F43
:1010000025D0B0F5006F08D10221104600F038F964
:101010000028606928D0401E606110BD0221104682
:1010200000F02EF90028A06802D0401CA06010BD7E
:10103000401EFBE74FF40041104600F021F9002864
:10104000E06802D0401EE06010BD401CFBE74FF49A
:101050000051104600F014F90028206902D0401C0D
:10106000206110BD401EFBE7401CD5E70010024088
:1010700000000020000C0240044910B50A6802423A
:1010800002D00860FFF7B0FF10BD0000143C014023
:101090002DE9F84FDFF8BCA1002201250AF1040B6D
:1010A00003264FF00F090BF1040E00BF0B6805FA81
:1010B00002F42340A34270D10F7907F00307012FF8
:1010C00001D0022F16D187684FEA420806FA08FCC1
:1010D00027EA0C07D1F80CC00CFA08FC4CEA070C04
:1010E000C0F808C04768A7430C79C4F300149440C3
:1010F0003C4344600C79E443A4070AD0C4684FEA37
:10110000420C06FA0CF7BC438F6807FA0CF727432A
:10111000C7600C7904F00304022C12D1D40800EB50
:10112000840CDCF820405707FF0E09FA07F824EA80
:101130000804D1F8108008FA07F848EA0408CCF847
:10114000208004684FEA420C06FA0CF7BC430F7982
:1011500007F0030707FA0CF7274307604C6814F4FD
:10116000403F70D03C4C276847F480472760246894
:1011700022F0030704F480440094384C07EB040C7D
:10118000DCF8084897074FEA177809FA08F7BC43D4
:10119000334FB84202D1002724E054E0314FB84227
:1011A00001D101271EE0304FB84201D1022719E0DA
:1011B0002E4FB84201D1032714E02D4FB84201D180
:1011C00004270FE02B4FB84201D105270AE02A4F30
:1011D000B84201D1062705E0284FB84201D10727C0
:1011E00000E0082707FA08F72743CCF80878DAF870
:1011F00000405746D1F804C09C435FEACC3C00D580
:101200001C433C60DBF800405F46D1F804C09C43BF
:101210005FEA8C3C00D51C433C60DEF8004077461A
:10122000D1F804C09C435FEACC2C00D51C433C6041
:10123000084F0C373C68D1F804C09C435FEA8C2C03
:1012400000D51C433C60521C102AFFF42FAFBDE8B0
:10125000F88F0000003C014044380240003001405B
:10126000000002400004024000080240000C02405E
:10127000001002400014024000180240001C02400E
:101280000069084000D0012070470AB181617047B1
:101290000904FBE70148806870470000180100203E
:1012A000024881680278114481607047180100206B
:1012B0000B4810B5016841F400710160016841F408
:1012C00080610160016841F480710160032000F0D9
:1012D0006FF8002000F006F800F024F8002010BDA0
:1012E000003C024070B50D4D04464FF47A712878E9
:1012F000B1FBF0F00A490968B1FBF0F000F00CFB1B
:1013000048B9102C07D200222146501E00F030F8B8
:1013100000206C6070BD012070BD0000180100202D
:10132000240100200A4808B5016841F480410160A9
:10133000006800F4804000900548001F016841F0FB
:1013400080510160006800F08050009008BD0000EE
:1013500044380240002809DB00F01F0201219140BF
:101360004009800000F1E020C0F800117047000043
:10137000F0B40E4B1B680C46C3F30223C3F1070500
:10138000042D00D90425191D072901D2002300E0EE
:10139000DB1E012606FA05F1491E214099409E40B8
:1013A000761E16403143F0BC02F01FB80CED00E091
:1013B000064900F0070208684FF6FF03184040EAAC
:1013C0000220034A10430860704700000CED00E063
:1013D0000000FA052DE9F0470E46050065D0DFF85C
:1013E0001481D8F80000F7B200F00700B04207D22D
:1013F00088F80070D8F8000000F00700B04254D11F
:1014000028683D4C810712D5400703D5206840F479
:10141000E05020602878000703D5206840F4604041
:1014200020602068A96820F0F00008432060287838
:10143000C0072DD0304968680839012812D0022829
:1014400013D0032811D00968890700292DDA2168F3
:1014500021F0030101432160FFF71CFF814641F2A7
:10146000883A0EE009688903EFE709688901ECE72B
:10147000FFF710FFA0EB0901514502D90320BDE899
:10148000F0872068696800F00C00B0EB810FEFD1A5
:10149000D8F80010404601F00701B14207D90770A3
:1014A000006800F00700B04201D00120E7E728788B
:1014B000400705D52068E96820F4E0500843206023
:1014C0002878000706D52068296920F4604040EAA2
:1014D000C100206000F038F82168084AC1F3031108
:1014E000515CC8400649086006480068FFF7FAFEEC
:1014F0000020C4E7003C0240083802404C37000896
:10150000240100201C0100200448054900680968E6
:10151000044AC1F38221515CC84070472401002075
:10152000083802405C37000804480549006809682B
:10153000044AC1F34231515CC84070472401002085
:10154000083802405C370008154810B5006810F0F4
:101550000C02144813D01449042A0FD0082A0ED1C3
:101560000F4C241F2268236802F03F025B0207D55C
:101570002068C0F38810A0FB010106E0084610BDFA
:101580002168C1F38811A1FB00010023FEF718FEBA
:101590002168C1F30141491C4900B0FBF1F010BDC5
:1015A000083802400024F40040787D012DE9F84F0E
:1015B00004006ED02078DFF84C93C007A9F1040531
:1015C0004AD009F104000168C1F38101012908D062
:1015D0000068C0F3810002280AD1D9F80000400257
:1015E00006D52868800337D560680028E1D033E04D
:1015F0006068B0F5803F10D0B0F5A02F286810D0FB
:1016000020F480302860286820F4802028606068FA
:10161000A8B1FFF73FFE06460DE0286840F4803091
:10162000F4E740F480202860F7E700BFFFF732FEC0
:10163000801B642873D828688003F7D50CE0FFF777
:1016400029FE064605E000BFFFF724FE801B642844
:10165000F0D828688003F7D42078DFF8AC828007C0
:101660004FF0000A3ED5A748001D016811F00C0F8D
:1016700008D00068C0F3810002280BD1D9F800001F
:10168000400207D42868800716D5E068012800D1F9
:1016900012E033E1E068B8B10120C8F80000FFF7BC
:1016A000F9FD064605E000BFFFF7F4FD801B0228A8
:1016B000C0D828688007F7D52868216920F0F8008D
:1016C00040EAC10028600DE0C8F800A0FFF7E2FD85
:1016D000064604E0FFF7DEFD801B02281FD82868BD
:1016E0008007F7D42078000722D5864F87486169A4
:1016F000703771B101210160FFF7CCFD064604E0AF
:10170000FFF7C8FD801B022809D838688007F7D585
:101710000EE0C0F800A0FFF7BDFD064605E082E040
:10172000FFF7B8FD801B02287DD838688007F7D402
:101730002078400768D5DFF8CCB100270BF13C0BCF
:10174000DBF80000C0000BD4DBF8001041F0805142
:10175000CBF80010DBF80000012700F0805000906B
:101760006B4E3068C00510D4306840F48070306033
:10177000FFF790FD009005E0FFF78CFD0099401AFF
:10178000022850D83068C005F6D55E4EA0686C3689
:1017900001280FD00528306810D020F001003060FB
:1017A000306820F004003060A068B8B1FFF772FD27
:1017B00000900FE0306840F00100F4E740F00400D2
:1017C0003060F7E7FFF766FD0099411A41F2883073
:1017D000814266D830688007F4D50EE0FFF75AFDE5
:1017E000009007E0FFF756FD0099411A41F288305A
:1017F000814256D830688007F4D42FB1DBF800104E
:1018000021F08051CBF80010A069C8B33D49091DF3
:101810000968C1F3810102294AD00228504607D045
:10182000C8F8600000E03CE0FFF734FD04463BE010
:101830004746C8F86000FFF72DFD064605E000BFEB
:10184000FFF728FD801B02282BD828688001F7D4D9
:10185000D4E907010843A16A2E4A490802EB014175
:10186000626A41EA8211084394F82C1040EA01614F
:10187000C9F8001001203866FFF70CFD044606E0A9
:101880003EE000BFFFF706FD001B022809D82868CC
:101890008001F7D534E000BFFFF7FCFC001B0228F5
:1018A00002D90320BDE8F88F28688001F4D427E02E
:1018B0000128F7D0D9F80000E26900F480019142D4
:1018C0001CD1226A00F03F01914217D147F6C07146
:1018D000626A0140B1EB821F10D1A26A4FF0FF3360
:1018E00000F4403103EB5202B1EB024F06D194F801
:1018F0002C1000F07060B0EB016F01D00120D1E737
:101900000020CFE70438024000004742800E4742E3
:10191000007000400000FFFF10B5401EB0F1807F56
:1019200001D3012010BD4FF0E02460610F2160174A
:1019300001F05BFD0020A06107202061002010BDA8
:101940007047704770B590F83C20012A32D00124CE
:1019500080F83C40022280F83D2003685A689D6868
:1019600022F070060A6832435A60134B02689A42AA
:1019700014D0B2F1804F11D0104B9A420ED0104BC0
:101980009A420BD00F4B9A4208D00F4B9A4205D087
:101990000E4B9A4202D00E4B9A4204D1496825F070
:1019A00080031943916080F83D40002180F83C108D
:1019B000084670BD022070BD0000014000040040D8
:1019C00000080040000C00400004014000400140BD
:1019D0000018004010B5040003D094F83D0010B189
:1019E00007E0012010BD002084F83C00204600F0F4
:1019F0001FF8022084F83D00211D206801F014FA30
:101A0000012084F8460084F83E0084F83F0084F802
:101A1000400084F8410084F8420084F8430084F8D0
:101A2000440084F8450084F83D00002010BD00000B
:101A300008B5234A01682348914207D1016841F063
:101A400002010160006800F002001EE01E4A91429F
:101A500011D1016841F0040101600068002200F02A
:101A60000400009001211E20FFF782FCBDE8084021
:101A70001E20FFF76FBC154A914208D1016841F062
:101A800008010160006800F00800009008BD104ADD
:101A9000914209D10B48001D016841F48031016079
:101AA000006800F48030F0E70A4A9142EED1016804
:101AB00041F480710160006800F48070E5E7000087
:101AC000000400404038024000080040000C004084
:101AD000004001400020004090F83D10012901D055
:101AE00001207047022180F83D100168CA6842F069
:101AF0000102CA6000681149884214D0B0F1804FD9
:101B000011D00F4988420ED00E4988420BD00E49A1
:101B1000884208D00D49884205D00D49884202D03C
:101B20000C49884204D1816801F00701062903D0DD
:101B3000016841F001010160002070470000014090
:101B40000004004000080040000C00400004014078
:101B5000004001400018004070B5044690F83C0079
:101B60000025012817D0012684F83C60022084F863
:101B70003D002068826822F0770222F47F42826072
:101B80000868502838D00DDC20284FD005DC90B3F1
:101B9000102811D14AE0022070BD302846D04028DC
:101BA0000AD13BE060282FD070280DD0B0F5805FBF
:101BB00003D0B0F5005F12D0012584F83D6000200D
:101BC00084F83C00284670BDCB68D1E9012120682B
:101BD00001F09BF92068816841F0770109E0CB684A
:101BE000D1E90121206801F090F92068816841F471
:101BF00080418160E1E719E0CA684968206801F026
:101C000059FA5021206806E0CA684968206801F046
:101C100062FA6021206801F082F9CEE7CA6849685B
:101C2000206801F047FA40212068F4E72268014665
:101C30001046F0E7704770B50446006801694FF040
:101C40000005C943890715D4C168C943890711D460
:101C5000E91E016101202077206880698007204605
:101C600002D0FFF7E7FF04E000F01CF9204600F087
:101C7000C1F9257720680169C943490717D4C168AC
:101C8000C943490713D46FF0040101610220207792
:101C90002068806910F4407F204602D0FFF7CAFF19
:101CA00004E000F0FFF8204600F0A4F92577206852
:101CB0000169C943090716D4C168C943090712D489
:101CC0006FF008010161042020772068C069800757
:101CD000204602D0FFF7AEFF04E000F0E3F8204614
:101CE00000F088F9257720680169C943C90617D42F
:101CF000C168C943C90613D46FF0100101610820FF
:101D000020772068C06910F4407F204602D0FFF79A
:101D100091FF04E000F0C6F8204600F06BF925774B
:101D200020680169C943C90708D1C168C943C90707
:101D300004D1891E0161204600F0C2F920680169C2
:101D4000C943090609D4C168C943090605D46FF01F
:101D5000800101612046FFF7F3FD20680169C94356
:101D6000490609D4C168C943490605D46FF040014A
:101D70000161204600F016FA20680169C94389060E
:101D80000BD4C168C943890607D46FF020010161F3
:101D90002046BDE87040FFF7D4BD70BDF0B587B0F8
:101DA000044614216846FEF743FA2468344D0022A5
:101DB000344902233448AC420DD10C6844F002048B
:101DC0000C60096801F00201059130210091CDE914
:101DD0000132694611E02D4D2D4EAC4214D10868F8
:101DE00040F0010008600868694600F001000590B5
:101DF0000C200090CDE901323046CDE9032300BF2D
:101E0000FFF746F907B0F0BD224DAC4211D108688A
:101E100040F0100008600868694600F01000059066
:101E200060200090CDE901320320CDE903201A485B
:101E3000E6E71A4F0925BC420DD10C6844F00204B4
:101E40000C60096801F002010591F9130091CDE9D8
:101E50000132694610E012488442D3D1086840F04C
:101E6000010008600868694600F0010005908020C4
:101E70000090CDE901323046CDE90325C0E70000EE
:101E8000000400403038024000040240000C0040D2
:101E900000000240004001400010024000180040D5
:101EA00000200040704770B5044690F83C000026C2
:101EB0000D4601280FD0012084F83C006AB1042AA5
:101EC0001DD0082A2FD00C2A3FD00126002084F8EC
:101ED0003C00304670BD022070BD206801F028F83B
:101EE0002068816941F0080181612068816921F0E1
:101EF00004018161206881692A69114311E0206829
:101F000001F046F82068816941F400618161206830
:101F1000816921F480618161206881692A6941EACF
:101F200002218161D2E7206801F068F82068C16968
:101F300041F00801C1612068C16921F00401C1615B
:101F40002068C1692A69114311E0206801F08AF80C
:101F50002068C16941F40061C1612068C16921F450
:101F60008061C1612068C1692A6941EA0221C161B9
:101F7000ACE710B5040003D094F83D0010B107E0C1
:101F8000012010BD002084F83C00204600F01EF81F
:101F9000022084F83D00211D206800F045FF01204B
:101FA00084F8460084F83E0084F83F0084F840003E
:101FB00084F8410084F8420084F8430084F8440027
:101FC00084F8450084F83D00002010BD08B5006885
:101FD0000649884208D10648016841F04001016085
:101FE000006800F04000009008BD000000180040AC
:101FF000403802407047000010B50446022249B143
:1020000004290ED0082913D094F84100012816D0D5
:10201000012010BD94F83E000128F9D184F83E203B
:102020000FE094F83F000128F2D184F83F2008E047
:1020300094F840000128EBD184F8402001E084F8B6
:1020400041200122206800F053FF16492068164AFB
:10205000884201D0904203D1436C43F4004343646F
:102060002068884213D0B0F1804F10D00F498842C9
:102070000DD00F4988420AD00E49884207D09042BD
:1020800005D00D49884202D00C49884204D18168AC
:1020900001F00701062903D0016841F00101016048
:1020A000002010BD00000140000401400004004079
:1020B00000080040000C00400040014000180040B3
:1020C00010B5354900680968884263D101F080FA8B
:1020D000324C04F11C0090EC030A01F0D9F994EDA4
:1020E0000E0A00F0C7FB94ED0F0A00F067FC94EDB8
:1020F000100A00F007FD94ED110A00F0A7FD04F1AD
:102100008000254990ED130A9031BCEEC00A0B689F
:1021100010EE102A5A6390ED140A0968BCEEC00A4A
:1021200010EE102A8A6390ED150A1B49BCEEC00A16
:1021300048310B6810EE102ADA6390ED160A096830
:10214000BCEEC00A10EE102A0A6490ED170A144A79
:10215000BCEEC00A126810EE101A516390ED180A16
:102160000F4ABCEEC00A483A126810EE101A91638A
:1021700090ED190A0849BCEEC00A48390B6810EE08
:10218000102A5A6390ED1A0A0968BCEEC00A10EED4
:10219000100A886310BD00007401002000000020B8
:1021A0009402002070477047704770B5040004D057
:1021B00094F83D00002510B106E0012070BD84F8C0
:1021C0003C50204600F022F8242084F83D0020688E
:1021D000C16821F40051C160204601F037F8206841
:1021E000016921F4904101612068416921F02A01CF
:1021F00041612068C16841F40051C160256420201C
:1022000084F83D0084F83E00002070BD70B586B0B3
:10221000064614216846FEF70BF81F4930688842CD
:1022200038D11E480025016841F480210160006812
:1022300000F48020059019481038016841F002012F
:1022400001600068694600F0020005904FF44060AC
:1022500000900220CDE9010503200390072004909F
:102260000F48FEF715FF104C0E4820604FF000603D
:10227000C4E901054014C4E903506561A561E56145
:10228000256220466562FEF70DFE08B1FEF738FDB7
:10229000B463A66306B070BD0048004040380240F9
:1022A00000040240286002403C03002090F83E30C9
:1022B000202B0ED159B152B190F83C30012B08D0EF
:1022C000012380F83C300023036301F045B801206E
:1022D000704702207047000070B521490068096806
:1022E00088423BD11F4C1E4A44326168002521B907
:1022F00000201554401C1928FBDD20785054491C3F
:102300006160782809D11648443001F081F851EC19
:10231000100BFEF7C4F86560E0612078792809D1D8
:102320000F48443001F074F851EC100BFEF7B7F889
:10233000656020622078772809D10948443001F08F
:1023400067F851EC100BFEF7AAF865606062BDE813
:102350007040012203490248FFF7A8BF70BD00008A
:10236000DC020020000000207047FEE710B50D4C95
:10237000012204212046FEF788FF01220821204681
:10238000FEF783FF00210848FFF736FE04210648C8
:10239000FFF732FE044900200A6850630968886329
:1023A00010BD0000001002400402002010B50D4CCA
:1023B0000122D1022046FEF768FF01229102204649
:1023C000FEF763FF08210848FFF716FE0C210648B8
:1023D000FFF712FE044900200A68D0630968086408
:1023E00010BD000000100240BC01002010B50E4CD2
:1023F000012211022046FEF748FF01225102204629
:10240000FEF743FF00210948FFF7F6FD07480421C6
:102410004838FFF7F1FD0549002009684863034982
:1024200048390968886310BD000C024094020020FE
:1024300010B5012208210B48FEF727FF0122D10326
:102440000948FEF722FF00210848FFF7D5FD0421C7
:102450000648FFF7D1FD0548002102685163006876
:10246000816310BD00040240001802402C010020CE
:102470002DE9F04387B014216846FDF7D9FE59488D
:102480000024016841F010010160016801F01001B1
:102490000591016841F080010160016801F080014F
:1024A0000591016841F001010160016801F001013D
:1024B0000591016841F002010160016801F002012B
:1024C0000591016841F008010160016801F008010F
:1024D0000591016841F0040101600068DFF808819E
:1024E00000F0040040F60C450590012229464046C4
:1024F000FEF7CBFE3D4E002240213046FEF7C5FEE2
:10250000DFF8EC904FF44677012239464846FEF753
:10251000BCFE00950125CDE901546946404603946F
:10252000FEF7B6FD3020CDE900046946304602943E
:10253000FEF7AEFD40200090CDE9015469463046DB
:102540000394FEF7A5FDA8034FF40416CDE9000699
:10255000694602954046FEF79BFD48F20200CDE930
:102560000004694640460294FEF792FD0097CDE9CB
:102570000154694648460394FEF78AFD2803CDE9D5
:102580000006694602954846FEF782FD42F20200C7
:10259000CDE90004694648460294FEF779FDE80259
:1025A000CDE90006694602951248FEF771FD680202
:1025B000CDE90006694602950F48FEF769FD002245
:1025C00002211720FEF7D4FE1720FEF7C3FE0022DB
:1025D00002212820FEF7CCFE2820FEF7BBFE07B024
:1025E000BDE8F08330380240001002400000024095
:1025F000000C0240000802400004024010B588B000
:102600001C216846FDF714FE0F480E4900240160A6
:102610001021C0E9011440F2E731C0E903148461DC
:10262000FFF7A7FC6020CDE900040294042269466C
:1026300005480494FFF737FC0348FFF7AFFB08B0E9
:1026400010BD0000001800404C02002010B588B0FA
:102650001C216846FDF7ECFD10480F49002401607D
:102660001021C0E9011440F2E731C0E9031484618C
:10267000FFF7B0F90948FFF77CFC6020CDE90004C2
:1026800002940022694605480494FFF70CFC0348B5
:10269000FFF784FB08B010BD00200040940200202A
:1026A00010B58EB000240794089409940A940B94F2
:1026B0001C2168460C94FDF7BBFD194817490160C1
:1026C0001021C0E9011440F2E731C0E9031484612C
:1026D000FFF780F94FF48050079007A91048FFF7E3
:1026E0003BFA0F48FFF745FC0B940BA90C480C94E0
:1026F000FFF728F96020CDE9000402940022694622
:1027000007480494FFF7CFFB042269460448FFF70B
:10271000CAFB0348FFF742FB0EB010BD00040040A7
:102720002C01002010B586B00024124800940194BA
:102730000294039404940E49059401604FF47A5175
:10274000C0E901146321C0E903148461FFF742F971
:102750004FF48050009069460648FFF7FDF9049455
:1027600004A904480594FFF7EDF806B010BD000079
:10277000000800407401002010B58EB000240794BA
:10278000089409940A940B941C2168460C94FDF754
:102790004FFD1948174901601021C0E9011440F2AA
:1027A000E731C0E903148461FFF714F94FF4805056
:1027B000079007A91048FFF7CFF90F48FFF7D9FB9B
:1027C0000B940BA90C480C94FFF7BCF86020CDE9E2
:1027D000000402940822694607480494FFF763FB4B
:1027E0000C2269460448FFF75EFB0348FFF7D6FA60
:1027F0000EB010BD000C0040BC01002010B58CB024
:1028000000240794089409941C2168460A94FDF753
:102810000FFD1648144901601021C0E9011440F26F
:10282000E731C0E903148461FFF7D4F84FF4805016
:10283000079007A90D48FFF78FF90C48FFF799FBA0
:102840006020CDE900040294002269460748049400
:10285000FFF729FB042269460448FFF724FB0348DD
:10286000FFF79CFA0CB010BD0040014004020020AC
:10287000FEE7FEE770B5474D2DED068BB0EE408AC2
:1028800095ED020AB8EEC00A10EE100AFDF7F4FD4D
:102890009FED411B53EC112BFDF77CFDFDF7FFFD78
:1028A00000EE100ADFED3E8AB5EEC08A0020F1EEA0
:1028B00010FA85ED120A05F18004A86006D1C4ED76
:1028C000138AC4ED148ABDEC068B70BD38EE408AC5
:1028D00085ED168A94ED000A20EE08AA84ED03AA7D
:1028E00094ED010A20EE080A10EE100AFDF7C4FD6F
:1028F0009FED2C1B53EC112BFDF74CFD41EC190BFC
:10290000E069FDF7B9FD53EC192BFDF79CFCFDF7D1
:10291000C6FD00EE100A254984ED070AD5ED1A0A16
:1029200094ED021A3AEE000A78EE600A60EE810A2F
:10293000B2EE041A60EE810AC4ED0B0A30EE200AF2
:10294000D4ED0F0A30EE200A10EE100A84ED0F0AC3
:10295000884203DD9FED160A84ED0F0A10EE100A7F
:102960001449884203D99FED140A84ED0F0AB5EE8D
:10297000C00AF1EE10FA04DBC4ED138A84ED140AE8
:1029800005E0B1EE400A84ED130AC4ED148A85ED2A
:102990001A8A98E700000020AC1C5A643BDF044010
:1029A000000000009A9999999999B93F0000FA435B
:1029B0000000FA430000FAC30000FAC370B5474DA7
:1029C0002DED068BB0EE408A95ED030AB8EEC00AF5
:1029D00010EE100AFDF750FD9FED411B53EC112B3B
:1029E000FDF7D8FCFDF75BFD00EE100ADFED3E8A37
:1029F000B5EEC08A0020F1EE10FA85ED130A05F15C
:102A00008004E86006D1C4ED158AC4ED168ABDECD9
:102A1000068B70BD38EE408A85ED178A94ED000A6A
:102A200020EE08AA84ED04AA94ED010A20EE080A1B
:102A300010EE100AFDF720FD9FED2C1B53EC112B1F
:102A4000FDF7A8FC41EC190B206AFDF715FD53ECCE
:102A5000192BFDF7F8FBFDF722FD00EE100A2549C2
:102A600084ED080AD5ED1B0A94ED021A3AEE000A2D
:102A700078EE600A60EE810AB2EE041A60EE810A16
:102A8000C4ED0C0A30EE200AD4ED100A30EE200A14
:102A900010EE100A84ED100A884203DD9FED160A3D
:102AA00084ED100A10EE100A1449884203D99FEDF4
:102AB000140A84ED100AB5EEC00AF1EE10FA04DB38
:102AC00084ED150AC4ED168A05E0C4ED158AB1EE51
:102AD000400A84ED160A85ED1B8A98E70000002065
:102AE000AC1C5A643BDF0440000000009A9999999D
:102AF0009999B93F0000FA430000FA430000FAC375
:102B00000000FAC370B5474D2DED068BB0EE408A3C
:102B100095ED040AB8EEC00A10EE100AFDF7ACFC01
:102B20009FED411B53EC112BFDF734FCFDF7B7FC77
:102B300000EE100ADFED3E8AB5EEC08A0020F1EE0D
:102B400010FA85ED140A05F18004286106D1C4ED60
:102B5000178AC4ED188ABDEC068B70BD38EE408A2A
:102B600085ED188A94ED000A20EE08AA84ED05AAE6
:102B700094ED010A20EE080A10EE100AFDF77CFC25
:102B80009FED2C1B53EC112BFDF704FC41EC190BB2
:102B9000606AFDF771FC53EC192BFDF754FBFDF750
:102BA0007EFC00EE100A254984ED090AD5ED1C0AC9
:102BB00094ED021A3AEE000A78EE600A60EE810A9D
:102BC000B2EE041A60EE810AC4ED0D0A30EE200A5E
:102BD000D4ED110A30EE200A10EE100A84ED110A2D
:102BE000884203DD9FED160A84ED110A10EE100AEB
:102BF0001449884203D99FED140A84ED110AB5EEF9
:102C0000C00AF1EE10FA04DBC4ED178A84ED180A4D
:102C100005E0B1EE400A84ED170AC4ED188A85ED8F
:102C20001C8A98E700000020AC1C5A643BDF04407B
:102C3000000000009A9999999999B93F0000FA43C8
:102C40000000FA430000FAC30000FAC370B5474D14
:102C50002DED068BB0EE408A95ED050AB8EEC00A60
:102C600010EE100AFDF708FC9FED411B53EC112BF1
:102C7000FDF790FBFDF713FC00EE100ADFED3E8A36
:102C8000B5EEC08A0020F1EE10FA85ED150A05F1C7
:102C90008004686106D1C4ED198AC4ED1A8ABDECBE
:102CA000068B70BD38EE408A85ED198A94ED000AD6
:102CB00020EE08AA84ED06AA94ED010A20EE080A87
:102CC00010EE100AFDF7D8FB9FED2C1B53EC112BD7
:102CD000FDF760FB41EC190BA06AFDF7CDFB53EC4F
:102CE000192BFDF7B0FAFDF7DAFB00EE100A2549C3
:102CF00084ED0A0AD5ED1D0A94ED021A3AEE000A97
:102D000078EE600A60EE810AB2EE041A60EE810A83
:102D1000C4ED0E0A30EE200AD4ED120A30EE200A7D
:102D200010EE100A84ED120A884203DD9FED160AA8
:102D300084ED120A10EE100A1449884203D99FED5F
:102D4000140A84ED120AB5EEC00AF1EE10FA04DBA3
:102D500084ED190AC4ED1A8A05E0C4ED198AB1EEB2
:102D6000400A84ED1A0A85ED1D8A98E700000020CC
:102D7000AC1C5A643BDF0440000000009A9999990A
:102D80009999B93F0000FA430000FA430000FAC3E2
:102D90000000FAC370477047FEF782BA10B592B0D0
:102DA00030216846FDF744FA14210CA8FDF740FADB
:102DB00014480024016841F080510160006800F06F
:102DC000805011901048016841F480410160006812
:102DD000069400F48040119002200090012003909E
:102DE000102004906846FEF7E1FB0F20CDE90C04AB
:102DF0000E940F9400210CA81094FEF7EBFA12B079
:102E000010BD0000403802400070004002480168D8
:102E100041F470010160704788ED00E00148FEF761
:102E20000ABF000074010020F0B50268254C264D51
:102E3000264E274F274B4FF0804CA04209D06045CB
:102E400007D0A84205D0B04203D0B84201D0984282
:102E500004D122F0700E4A6842EA0E02A0421BD052
:102E6000604519D0A84217D0B04215D0B84213D04F
:102E7000984211D0184DA8420ED0184DA8420BD040
:102E8000174DA84208D0174DA84205D0164DA842AC
:102E900002D0164DA84203D122F44075CA682A43D5
:102EA0004D6922F080022A4302608A68C2620A6881
:102EB0008262A04201D0984201D1096901630121D7
:102EC0004161F0BD000001400004004000080040E6
:102ED000000C00400004014000400140004401405B
:102EE0000048014000180040001C00400020004045
:102EF00010B501F01F030121046A99408C4304625C
:102F0000016A9A401143016210BD10B5846842EA1B
:102F1000032224F47F440A432243826010BD826866
:102F200022F070020A4342F00701816070470000FE
:102F3000F0B5026A22F001020262036A4268846903
:102F4000124E24F073050C682C4323F002058B68A5
:102F50002B430D4DA84201D0B04205D123F0080704
:102F6000CB683B4323F00403A84201D0B04205D113
:102F70004D6922F4407215438A692A434260846194
:102F8000496841630362F0BD000001400004014054
:102F9000F0B5026A22F010020262026A4368846994
:102FA0000D6824F4E64444EA05248D6822F02002EA
:102FB00042EA05120F4D104EA84201D0B04206D190
:102FC000CF6822F0800242EA071222F04002A842B3
:102FD00001D0B04207D14D6923F4406343EA850331
:102FE0008D6943EA850343608461496881630262B5
:102FF000F0BD00000000014000040140F0B5026A8D
:1030000022F480720262026A4368C46922F4007288
:1030100024F073050C68124E2C438D6842EA052299
:103020000E4DA84201D0B04206D1CF6822F4006212
:1030300042EA072222F48062A84201D0B04207D1BE
:103040004D6923F4405343EA05138D6943EA0513A0
:103050004360C4614968C1630262F0BD0000014081
:103060000004014030B5026A22F480520262046A10
:103070004268C3690D6823F4E64343EA05238D687B
:1030800024F4005444EA0534084DA84202D0084D07
:10309000A84204D14D6922F4804242EA851242607E
:1030A000C36149680164046230BD00000000014052
:1030B0000004014010B5036A046A24F001040462AC
:1030C000846924F0F00444EA021423F00A020A435B
:1030D0008461026210BD10B5036A23F0100303621D
:1030E0008369046A23F4704343EA023224F0A003A4
:1030F00043EA01118261016210BD70B5846B2068E2
:10310000406994F83D10C0F3C0100025212904D176
:1031100018B1E584204600F08AF82068406994F8E8
:103120003E10C0F38010222904D118B1E585204655
:1031300000F056F8206C40F0100020642046FFF7A5
:1031400033F870BD10B50146806B09680968C90580
:103150002FD40021C18501680C3151E8002F22F4E1
:10316000807241E80023002BF5D10168143151E849
:10317000002F22F0010241E80023002BF5D1016865
:10318000143151E8002F22F0400241E80023002BC7
:10319000F5D1202180F83E10016B012909D1016889
:1031A0000C3151E8002F22F0100241E80023002BDF
:1031B000F5D1016B012902D0FFF78EF810BD818D8A
:1031C000FEF7F1FF10BD10B5806B016B012902D035
:1031D000FFF7CAF810BD818D4908FEF7E4FF10BD66
:1031E00001680C3151E8002F22F4907241E800236D
:1031F000002BF5D10168143151E8002F22F00102B3
:1032000041E80023002BF5D1016B012909D10168A8
:103210000C3151E8002F22F0100241E80023002B6E
:10322000F5D1202180F83E1000210163704701682C
:103230000C3151E8002F22F0C00241E80023002B9E
:10324000F5D1202180F83D107047000070B504468C
:1032500000680169E26821F440511143016121696C
:10326000A068E26908436169114308432168CA689C
:1032700049F20C639A430243CA6020684169A2691B
:1032800021F440711143416131492068884202D0E4
:103290003049884202D1FEF747F901E0FEF734F9E0
:1032A000E2690023192164253226B2F5004F6268D5
:1032B00028D0A0FB0101930F9200FCF781FF01468B
:1032C000B0FBF5F06FF01802504301EB800006EB05
:1032D0000010B0FBF5F000F0F002B1FBF5F002EBEE
:1032E0000012B1FBF5F06FF01803584301EB8000BA
:1032F00006EB0010B0FBF5F000F00F002168104461
:10330000886070BDA0FB010192185B41FCF758FF7B
:103310000146B0FBF5F00201B1FBF5F06FF01803C8
:10332000584301EB800006EBC000B0FBF5F000F065
:10333000F80002EB4002B1FBF5F0584301EB8000CE
:1033400006EBC000B0FBF5F000F00700D6E7000088
:10335000001001400014014038B5816282850025CB
:10336000134604460564222084F83E00A26B1B48E5
:10337000D063A26B1A481064A26B1A48D064A06B89
:103380000A4605652168A06B091DFDF7F5FD20685B
:1033900001684068009084F83C5020680C3050E888
:1033A000001F41F4807140E80012002AF5D1206826
:1033B000143050E8001F41F0010140E80012002ADB
:1033C000F5D12068143050E8001F41F0400140E87A
:1033D0000012002AF5D1002038BD00004531000858
:1033E000C7310008FB300008FEE70907090E002876
:1033F00004DB00F1E02080F80014704700F00F00BB
:1034000000F1E02080F8141D70470000000000006B
:1034100030B583B0044600F017F89FED090B054660
:103420008DED000B002221466846FDF7A0F82846E6
:1034300000F020F89DED000B03B030BD000000004F
:103440000000000000000000014800687047000014
:103450002801002002E008C8121F08C1002AFAD182
:1034600070477047002001E001C1121F002AFBD104
:1034700070470000014908607047000028010020E3
:1034800030380A2801D20120704700207047000020
:10349000234830EE602A30EE200AD0ED1E1AD0ED1F
:1034A0001F2AB0EE423AF0EE400A71EEA22ADFED9A
:1034B0001D1A00F1280102EE812A02EEC10A02EE75
:1034C000C13A42EE810A22EE211A20EE214A23EE71
:1034D000213A80ED0D1A60EEA13A9FED130AF0EE4D
:1034E000000A81EC033A63EE001A90ED062A62EEC0
:1034F000200A81EEA02A63EE801A80ED0E2A81EE6A
:10350000A02A64EE001A21EE000A80EE201A80ED57
:103510000F2A81EEA02A80ED102A80ED111A704743
:1035200000000020ABAAA6410000704208B5FDF7DC
:10353000BFFEFFF733FCFEF79BFF20480024016825
:1035400041F4001101600068224600F40010009070
:1035500021460C20FDF70CFF0C20FDF7FBFEFFF7CA
:103560009FF8FFF7DFF8FFF707F9FFF747F9FFF7D5
:1035700045F8FFF76BF81348114901604FF4E1314A
:10358000C0E901140C21C460C0E904418461C46134
:10359000FEF70BFE0C48FEF79FFA01220B49094883
:1035A000FEF784FEFEF7E2FEFEF700FFFEF71EFFC9
:1035B000FEF73EFF00F098F8FCE7000030380240CC
:1035C00000480040DC0200207401002000000020C0
:1035D00010B5404C2DED068B94ED020AB8EEC00AF2
:1035E00010EE100AFCF748FF9FED3B8B53EC182BB5
:1035F000FCF7D0FEFCF753FF0AEE100A84ED12AA86
:1036000094ED030AB8EEC00A10EE100AFCF734FF7E
:1036100053EC182BFCF7BEFEFCF741FF09EE100A35
:1036200084ED139A94ED040AB8EEC00A10EE100A65
:10363000FCF722FF53EC182BFCF7ACFEFCF72FFF36
:1036400009EE900AC4ED149A94ED050AB8EEC00A8A
:1036500010EE100AFCF710FF53EC182BFCF79AFE43
:10366000FCF71DFF01EE100AB0EE000A84ED151AFA
:10367000D4ED060A04F1EC0060EE800A9FED180A12
:1036800020EE8A2A60EE892A20EEA93A20EE811ADD
:10369000C2EE001A82EE802AC3EE002AC1EE000AB2
:1036A0009FED100AE0EC031A21EE801AC0EC020A2A
:1036B00022EE001A04F5807080ED001A22EE801AC6
:1036C00020EE800A80ED011A80ED020ABDEC068B27
:1036D00010BD000000000020AC1C5A643BDF044019
:1036E00000007042A69B443D70B5144C144D208AD6
:1036F00081B22846FDF7C4FD2061A08A81B2284628
:10370000FDF7BEFD60612169012901D021B105E00D
:1037100020B90120E0600EE0012803D0E068012814
:1037200009D001E00020E06000222846BDE870409A
:103730004021FDF7AABD0122F7E7000000010020AB
:1037400000000240000610160006101600000000DF
:103750000000000001020304060708090000000041
:1037600001020304DDDDDDDDDCBBBBDDDDDDDDDD38
:10377000DDDDDDDD988888888888888877777777A9
:103780007788888885555556666666666666666675
:103790006668888883333332222222222222222220
:1037A0002228888DC4370008000000202C0100006A
:1037B000EA0B0008EC3700082C010020740600001A
:1037C000643400080119055DC3F5484000158D58A3
:1037D00073603E50AA5D3E9A99993F0AD7A33D6F08
:0C37E00012033B420192106324F400002D
:040000050800018965
:00000001FF
