:020000040800F2
:1000000068070020A10100085B2900088724000878
:1000100059290008C70C00084935000800000000F5
:100020000000000000000000000000007F2E00081B
:10003000790D0008000000007D2E0008812E0008C8
:10004000BB010008BB010008BB010008BB010008A0
:10005000BB010008BB010008BB010008BB01000890
:10006000BB010008BB010008BB010008BB01000880
:10007000C90C0008BB010008BB010008BB01000857
:10008000BB010008BB010008BB010008BB01000860
:10009000BB010008BB010008BB010008990D000866
:1000A000BB010008BB010008BB010008BB01000840
:1000B000BB010008BB010008052F0008BB010008B8
:1000C000BB010008BB010008BB010008BB01000820
:1000D000BB010008BB010008BB010008BB01000810
:1000E0007B0D0008BB010008BB010008BB01000834
:1000F000BB010008BB010008BB010008BB010008F0
:10010000BB010008BB010008BB010008BB010008DF
:10011000BB010008BB010008BB010008BB010008CF
:10012000BB010008BB010008BB010008BB010008BF
:10013000BB010008BB010008BB010008BB010008AF
:10014000BB010008BB010008BB010008BB0100089F
:10015000BB010008BB010008BB010008BB0100088F
:10016000BB010008BB010008BB010008BB0100087F
:10017000BB010008BB010008BB0100080000000033
:10018000BB010008BB010008DFF810D000F076FBCF
:100190000048004729400008AFF3008068070020AE
:1001A0000648804706480047FEE7FEE7FEE7FEE711
:1001B000FEE7FEE7FEE7FEE7FEE7FEE7F52E0008B6
:1001C000890100082DE9F05F0546002092469B4614
:1001D00088460646814640241BE02846414647465D
:1001E000224600F0A6F953465A46C01A914110D350
:1001F00011461846224600F08DF92D1A67EB0108CA
:100200004F4622460120002100F084F917EB000937
:100210004E41201EA4F10104DFDC484631462A4647
:100220004346BDE8F09FD2B201E000F8012B491E21
:10023000FBD270470022F6E710B513460A46044683
:100240001946FFF7F0FF204610BD421C10F8011BB5
:100250000029FBD1801A70472DE9FE4F804681EAC4
:100260000300C00F0C46009021F0004123F0004530
:10027000B8EB0200A94105D24046214690461C46F3
:100280000B46024623F00040104347D0270DC7F32A
:100290000A00C3F30A510290401A019040286BDA19
:1002A000C3F3130040F4801B0098924620B1002352
:1002B000D2EB030A63EB0B0B01985946C0F14002E5
:1002C000504600F027F906460D4650465946019A19
:1002D00000F03FF910EB08006141002487EA115259
:1002E00084EAE7731A4340D0009A62B3019A012A64
:1002F0004FEA075215DC001B61EB02014FF0004290
:1003000002EA0752CDE90042001C41F58011324655
:100310002B4600F0C5F903B0BDE8F08F40462146FA
:10032000F9E7001B61EB0201001C41F58013001886
:100330005B412018A2F5001747EB030140EAD57096
:10034000B6196D4111E06D084FEA360645EAC075F1
:100350004FEA0752001B61EB0201001C41F58011BE
:1003600049084FEA30000019514132462B4603B08C
:10037000BDE8F04F00F085B900980122400000234D
:10038000D0EB020263EBE073009821464FEAE07481
:10039000B8EB000061EB0401E9E783F000435BE7A1
:1003A00081F0004158E72DE9FE4F81EA030404F093
:1003B000004421F0004100944FF0000B23F0004373
:1003C00050EA01045ED052EA03045BD0C3F30A543E
:1003D000C1F30A552C44A4F2F3340194A0FB025457
:1003E000C1F3130141F48011C3F3130343F48013E9
:1003F00001FB024400FB034E840A970A44EA81543D
:1004000047EA8357A4FB076802958D0A05FB078519
:100410004FEA932C04FB0C542705029D4FEA065823
:1004200047EA1637B5EB08056EEB070C870E920E00
:1004300047EA811742EA8312A7FB0201B6EB0B01E0
:1004400064EB00042B0D43EA0C335E1844EB1C50A4
:10045000DA465146E7FB0201C5F313044FEA0B33BA
:1004600043EA14534FEA0432019C43EA0603A4F121
:100470000C040294009CCDE900B400F011F903B023
:10048000BDE8F08F00200146F9E700F0004230F0AF
:1004900000400AD0C10D01F56071C0F3160042EAB8
:1004A0000151C208400711437047002001467047C0
:1004B00001F0004330B421F0004150EA010206D0BF
:1004C0000A0DA2F56072C1F31301002A02DC30BCF0
:1004D00000207047440F44EAC104C100E01830BC5A
:1004E00000EBC25000F096B830B50B460146002034
:1004F0002022012409E021FA02F59D4205D303FAE6
:1005000002F5491B04FA02F52844151EA2F1010266
:10051000F1DC30BD202A04DB203A00FA02F1002091
:1005200070479140C2F1200320FA03F31943904031
:100530007047202A04DB203A21FA02F0002170479C
:1005400021FA02F3D040C2F120029140084319463B
:100550007047202A06DBCB17203A41FA02F043EA23
:10056000E07306E041FA02F3D040C2F1200291406C
:1005700008431946704700000FB4002300B589B046
:100580000CA900910B996FF00042CB601E4B0693B3
:100590001E4B07930423CDE901321D4A08920246FF
:1005A0006B46002000F016FA09B05DF814FB70B538
:1005B00086B006464FF0FF300091CDE901010020E2
:1005C00015460C4604903246694604A8FFF7D4FF4E
:1005D00002460498211825B108B1084600E02046DB
:1005E0002860049800280DD0002A02DD0098884277
:1005F00008D0081B0094CDE901043246694604A8DE
:10060000FFF7BAFF06B070BD0D0C00082B0C0008F8
:10061000A10800080029A8BF7047401C490008BF76
:1006200020F00100704710B4B0FA80FC00FA0CF022
:1006300050EA010404BF10BC704749B1CCF120045A
:1006400021FA04F411FA0CF118BF012121430843E7
:10065000A3EB0C01CB1D4FEA00614FEA102042BF13
:10066000002010BC704700EBC35010440029A4BF09
:1006700010BC7047401C490008BF20F0010010BCAE
:10068000704710B5141E73F1000408DA401C41F1E4
:10069000000192185B411A4301D120F0010010BD06
:1006A0002DE9F04D92469B4611B1B1FA81F202E07C
:1006B000B0FA80F220329046FFF72CFF04460F4636
:1006C00040EA0A0041EA0B0153465A46084313D058
:1006D000114653EA010019D0C8F140025046FFF715
:1006E00028FF05460E46504659464246FFF712FF80
:1006F000084305D0012004E020463946BDE8F08DCE
:100700000020054346EAE0762C4337430A98630508
:10071000E40AA0EB08000022FD0A44EA47540A302C
:1007200002D500200146E9E7010510196941DDE91C
:10073000084500196941BDE8F04DA2E72DE9F04DEB
:1007400081EA030404F0004B21F0004514464FF009
:10075000000A23F0004150EA050220D054EA0102C9
:100760001DD0C5F30A570246C5F31303C1F31300A6
:10077000C1F30A5640F4801543F48013A7EB060832
:10078000101BD64608F2FD3873EB050002D308F1C2
:10079000010801E092185B41B8F1000F03DA002074
:1007A0000146BDE8F08D00204FF4801106468446D6
:1007B0000EE0171B73EB050705D3121B63EB050354
:1007C00006434CEA010C49084FEA300092185B419D
:1007D00050EA0107EDD152EA030012D082EA040088
:1007E00083EA0501084305D0101BAB4106D2012264
:1007F000002306E000224FF0004302E06FF0010208
:1008000053101AEB06004CEB085110EB0A0041EBB9
:100810000B01BDE8F04DFFF734BFC1F30A52C1F33D
:10082000130140F2FF3341F480119A4202DA0020B2
:100830000146704740F233439A42A2F2334202DC4F
:100840005242FFF776BEFFF765BE000030B5041ECA
:1008500071F1000404DB4FF00044404264EB0101FD
:10086000141E73F1000405DB1C464FF00043524296
:1008700063EB0403994208BF904230BD064C074D1C
:1008800006E0E06840F0010394E807009847103460
:10089000AC42F6D3FFF77CFCAC420008CC42000827
:1008A000C0B24FF4F05100F0D1B900002DE9FF4F74
:1008B000087883B09946FF2805D0491C2D2804D01C
:1008C0000024002008E000200BE00124F9E700EB01
:1008D000800003EB4000491C0B78FF2BF7D104B1DB
:1008E000404200230293147819461D462D2C01D056
:1008F0002B2C04D1521C2D2C13D000240294AA4678
:100900001478FF2C0FD00A25A3FB057801FB058185
:100910004FF0000C03FB0C11521CE3194AEB0101D0
:10092000EEE70124EAE7814453EA010002D019F519
:10093000C87F06DA03980021C0E9001107B0BDE8BE
:10094000F08F0025AE4E2F46DFF8B882184600F033
:1009500091F9CDE90001B9F1000002DAC9F1000412
:1009600000E004460023A74A1AEB030B42EB045AAB
:1009700012E0E00707D02A46334638464146FFF7E3
:1009800012FD074688462A46334610461946FFF7A9
:100990000AFD05460E466410002CEAD1DDE900018F
:1009A000B9F1000F5A46534606DAFFF7C7FE3A463A
:1009B0004346FFF7C3FE05E0FFF7F5FC3A46434622
:1009C000FFF7F1FC029A0AB181F00041039AC2E9F3
:1009D0000001B3E72DE9FF4F1F468DB0D7E901466F
:1009E0004FF0FF382E2045464FF000090B90B969B3
:1009F0006D1C0E988847396A824688470028F6D1D0
:100A0000BAF1FF3F0AD024F4D064002E11DDBAF110
:100A10002B0F08D0BAF12D0F0BD102E0404611B0D8
:100A20008DE744F48064B9696D1C0E98884782464E
:100A3000761E6946600501D52D2000E02B208DF83B
:100A4000000001F1010B0DF1200809E0B9696D1CEE
:100A50000E98884782460F9844F40074761E05600D
:100A6000002E02DDBAF1300FF0D00B998A453ED14D
:100A700044F0800406E00F99681CA9F1010944F4D0
:100A800000740860B9696D1C761E0E98884782460E
:100A90003028F0D02BE00B998A4505D1200603D4ED
:100AA00044F08004761E18E0504602F06FFE08B352
:100AB0000DF11301761E44F400748B4508D2AAF19F
:100AC00030000BF8010B200607D5A9F1010003E067
:100AD000200602D409F101008146A00502D50F9934
:100AE000681C0860B9696D1C0E9888478246002E04
:100AF000D1DC53E0002E51DDBAF1650F02D0BAF11E
:100B0000450F4BD1A00549D5B9696D1C24F440743B
:100B1000761E0E9888478246002E0CDD2B2804D0C6
:100B2000BAF12D0F07D144F48074B9696D1C0E9889
:100B300088478246761EE00501D52D2100E02B2155
:100B400008F8011BCDF82C8021E00DF12901761E5B
:100B500044F4007488450CD2AAF1300010F0FF0074
:100B600088F8000002D10B99884509D908F10108DD
:100B700006E0E00501D5244801E042F20F7081460D
:100B8000B9696D1C0E98884782460F980560002E43
:100B900004DD504602F0FAFD0028D6D1F9690E981E
:100BA0008847FF208BF8000088F80000002006909E
:100BB00007904B466A4608A906A8FFF777FEA005EE
:100BC00002D46FF001002AE714F0240F0AD0E007E6
:100BD00014D1DDE906123868031D3B600068C0E9E6
:100BE00000120BE0DDE90601FFF762FC0146E007B9
:100BF00004D13868021D3A600068016028460EE79B
:100C0000000014400000F03FF1D8FFFF426842B1FD
:100C1000016811F8013B23B1521EC0E900121846C9
:100C200070470121C160881E704742685AB1C3688D
:100C3000016843B983688B4205D0491E521CC0E944
:100C40000012002070474FF0FF3070477F2801D915
:100C5000002208E0064A02EB5002C007127800D1D9
:100C6000120902F00F020120904008407047000076
:100C70006C4200080EB540F2334202920022CDE9E8
:100C800000221346FFF70CFD03B000BD30B58C18F1
:100C900010F8012B12F00F0301D110F8013B1209DB
:100CA00006D110F8012B03E010F8015B01F8015B9D
:100CB0005B1EF9D101E001F8013B521EFBD1A142BC
:100CC000E6D3002030BDFEE7014800F06BB800001D
:100CD0000403002001681823CAB2103AB2FBF3F2F1
:100CE000054B6FF30901032A9B5CC36500D9091DFD
:100CF00081650846704700004C42000810B5014667
:100D000000208B698A6A4FF0C07453B1B3F5005F5D
:100D100015D072B1012A0CD0022A0AD0032A09D1B7
:100D200004E01AB1012A06D0022A03D1C96AC90116
:100D300000D5012010BDC96AA142FAD010BD002A19
:100D4000F7D0012AF2D0022AF3D0032AF3D010BD43
:100D500030B50468256825F4802525600468636043
:100D60008368402B036803D099600068C26030BD7F
:100D70009A600068C16030BD704710B54FF40060E4
:100D800000F0DCF94FF4805000F0D8F9BDE81040D5
:100D90004FF4804000F0D2B94FF4007000F0CEB9AB
:100DA000704700002DE9F84304464FF00009CDF8E4
:100DB000009063484FF41651A56D0068B0FBF1F741
:100DC0002E6894F85C10082000FA01F131420FD02F
:100DD00021680A6852070BD50A6822F004020A60EB
:100DE00094F85C108840A860606D40F00100606578
:100DF00094F85C104FF0010808FA01F0304208D076
:100E000021684969090604D5A860606D40F00200B8
:100E1000606594F85C1004208840304208D0216856
:100E20000968890704D5A860606D40F0040060651A
:100E300094F85C1010208840304218D0216809686E
:100E4000090714D5A86020680168490304D5006823
:100E5000000308D5A16C07E00168C90503D4016847
:100E600021F008010160216C09B12046884794F8FF
:100E70005C1020208840304231D021680968C906C2
:100E80002DD5A86094F8350005282068016806D0A3
:100E9000490347D5006800031DD4616C1CE021F0B4
:100EA000160101602068416921F080014161206CD8
:100EB00008B9A06C20B12068016821F00801016028
:100EC00094F85C103F208840A86084F8358084F84E
:100ED0003490216D1FE0E16B09B120468847606DB9
:100EE00000282BD0606DC00714D0052084F8350091
:100EF0002068016821F0010101600098401C009009
:100F0000B84203D820680068C007F6D184F835805D
:100F100084F83490E16C002910D001B02046BDE87F
:100F2000F04308470168C905D5D4016821F01001D4
:100F3000016084F8358084F83490CCE7BDE8F8830C
:100F4000280100202DE9F041044600F005FA06468C
:100F50005CB1022084F83500002584F83450206804
:100F6000016821F0010101600DE00120BDE8F08180
:100F700000F0F2F9801B052805D9202060650320C8
:100F800084F83500F2E720680068C007F0D12268D5
:100F9000116820480140D4E901031843D4E903361D
:100FA0003343184363691843A3691843E36918433B
:100FB000236A18430843616A042903D1D4E90B1357
:100FC00019430843106020684069666A20F00701F1
:100FD00030460E43012704280CD1A06A0643E06A7C
:100FE00040B12046FFF78AFE20B14020606584F8BA
:100FF0003570BAE7206846612046FFF76BFE94F82B
:101000005C203F2191408160656584F83570002047
:10101000ACE700003F8010F02DE9F0410446866DFA
:1010200090F83400002501280DD0012084F8340008
:1010300094F835700020012F07D084F83400022581
:101040002846BDE8F0810220FBE7022784F83570CE
:1010500060652046FFF77CFE94F85C103F208840D6
:10106000B0602068016841F016010160206C20B179
:101070002068016841F0080101602068016841F0C2
:1010800001010160DCE7000070B5044600F064F97E
:101090000546601C02D004480078044400F05CF966
:1010A000401BA042FAD370BD1C01002010B5204A9D
:1010B000204CB0F5007F13D0B0F5804F1CD01E4AF5
:1010C000B0F5805F25D0B0F5006F08D10221104641
:1010D00000F038F90028A06928D0401EA06110BD9A
:1010E0000221104600F02EF90028E06802D0401CD2
:1010F000E06010BD401EFBE74FF40041104600F0D9
:1011000021F90028206902D0401E206110BD401C3A
:10111000FBE74FF40051104600F014F90028606915
:1011200002D0401C606110BD401EFBE7401CD5E7AB
:101130000010024000000020000C0240044910B5DD
:101140000A68024202D00860FFF7B0FF10BD00003D
:10115000143C01402DE9F84FDFF8BCA10022012525
:101160000AF1040B03264FF00F090BF1040E00BF28
:101170000B6805FA02F42340A34270D10F7907F0FF
:101180000307012F01D0022F16D187684FEA4208CA
:1011900006FA08FC27EA0C07D1F80CC00CFA08FC88
:1011A0004CEA070CC0F808C04768A7430C79C4F3A1
:1011B000001494403C4344600C79E443A4070AD0F3
:1011C000C4684FEA420C06FA0CF7BC438F6807FA72
:1011D0000CF72743C7600C7904F00304022C12D1EA
:1011E000D40800EB840CDCF820405707FF0E09FA06
:1011F00007F824EA0804D1F8108008FA07F848EA4A
:101200000408CCF8208004684FEA420C06FA0CF778
:10121000BC430F7907F0030707FA0CF72743076071
:101220004C6814F4403F70D03C4C276847F480472A
:101230002760246822F0030704F480440094384CAB
:1012400007EB040CDCF8084897074FEA177809FA0F
:1012500008F7BC43334FB84202D1002724E054E0E2
:10126000314FB84201D101271EE0304FB84201D1C1
:10127000022719E02E4FB84201D1032714E02D4F69
:10128000B84201D104270FE02B4FB84201D1052706
:101290000AE02A4FB84201D1062705E0284FB8429C
:1012A00001D1072700E0082707FA08F72743CCF801
:1012B0000878DAF800405746D1F804C09C435FEA4A
:1012C000CC3C00D51C433C60DBF800405F46D1F8C5
:1012D00004C09C435FEA8C3C00D51C433C60DEF8B4
:1012E00000407746D1F804C09C435FEACC2C00D57F
:1012F0001C433C60084F0C373C68D1F804C09C4349
:101300005FEA8C2C00D51C433C60521C102AFFF471
:101310002FAFBDE8F88F0000003C01404438024088
:10132000003001400000024000040240000802407A
:10133000000C02400010024000140240001802405D
:10134000001C02400069084000D0012070470AB12B
:10135000816170470904FBE701488068704700001D
:101360001C010020024881680278114481607047A6
:101370001C0100200B4810B5016841F400710160A8
:10138000016841F480610160016841F4807101608D
:10139000032000F06FF8002000F006F800F024F8B9
:1013A000002010BD003C024070B50D4D04464FF4C6
:1013B0007A712878B1FBF0F00A490968B1FBF0F0C6
:1013C00000F00CFB48B9102C07D200222146501E19
:1013D00000F030F800206C6070BD012070BD00008E
:1013E0001C010020280100200A4808B5016841F4CA
:1013F00080410160006800F4804000900548001FB3
:10140000016841F080510160006800F08050009058
:1014100008BD000044380240002809DB00F01F022C
:10142000012191404009800000F1E020C0F8001146
:1014300070470000F0B40E4B1B680C46C3F3022348
:10144000C3F10705042D00D90425191D072901D270
:10145000002300E0DB1E012606FA05F1491E2140AB
:1014600099409E40761E16403143F0BC02F082B88F
:101470000CED00E0064900F0070208684FF6FF0394
:10148000184040EA0220034A1043086070470000F9
:101490000CED00E00000FA052DE9F0470E460500CE
:1014A00065D0DFF81481D8F80000F7B200F007002B
:1014B000B04207D288F80070D8F8000000F00700AA
:1014C000B04254D128683D4C810712D5400703D55E
:1014D000206840F4E05020602878000703D5206899
:1014E00040F4604020602068A96820F0F0000843C4
:1014F00020602878C0072DD0304968680839012855
:1015000012D0022813D0032811D0096889070029B6
:101510002DDA216821F0030101432160FFF71CFF50
:10152000814641F2883A0EE009688903EFE70968CD
:101530008901ECE7FFF710FFA0EB0901514502D943
:101540000320BDE8F0872068696800F00C00B0EB6C
:10155000810FEFD1D8F80010404601F00701B142E9
:1015600007D90770006800F00700B04201D00120E1
:10157000E7E72878400705D52068E96820F4E050BF
:10158000084320602878000706D52068296920F4E0
:10159000604040EAC100206000F038F82168084A45
:1015A000C1F30311515CC840064908600648006851
:1015B000FFF7FAFE0020C4E7003C02400838024072
:1015C0005442000828010020200100200448054959
:1015D00000680968044AC1F38221515CC840704721
:1015E00028010020083802406442000804480549E8
:1015F00000680968044AC1F34231515CC840704731
:10160000280100200838024064420008154810B53F
:10161000006810F00C02144813D01449042A0FD0AB
:10162000082A0ED10F4C241F2268236802F03F02C3
:101630005B0207D52068C0F38810A0FB010106E01B
:10164000084610BD2168C1F38811A1FB00010023E9
:10165000FEF7B8FD2168C1F30141491C4900B0FB08
:10166000F1F010BD083802400024F40040787D01FC
:101670002DE9F84F04006ED02078DFF84C93C007B6
:10168000A9F104054AD009F104000168C1F3810100
:10169000012908D00068C0F3810002280AD1D9F8D6
:1016A0000000400206D52868800337D5606800280E
:1016B000E1D033E06068B0F5803F10D0B0F5A02FE6
:1016C000286810D020F480302860286820F480201A
:1016D00028606068A8B1FFF73FFE06460DE0286865
:1016E00040F48030F4E740F480202860F7E700BF42
:1016F000FFF732FE801B642873D828688003F7D573
:101700000CE0FFF729FE064605E000BFFFF724FEC8
:10171000801B6428F0D828688003F7D42078DFF88D
:10172000AC8280074FF0000A3ED5A748001D016833
:1017300011F00C0F08D00068C0F3810002280BD113
:10174000D9F80000400207D42868800716D5E06861
:10175000012800D112E033E1E068B8B10120C8F8F7
:101760000000FFF7F9FD064605E000BFFFF7F4FDB6
:10177000801B0228C0D828688007F7D5286821690F
:1017800020F0F80040EAC10028600DE0C8F800A091
:10179000FFF7E2FD064604E0FFF7DEFD801B0228AE
:1017A0001FD828688007F7D42078000722D5864FF5
:1017B00087486169703771B101210160FFF7CCFD85
:1017C000064604E0FFF7C8FD801B022809D83868E8
:1017D0008007F7D50EE0C0F800A0FFF7BDFD064674
:1017E00005E082E0FFF7B8FD801B02287DD838684D
:1017F0008007F7D42078400768D5DFF8CCB1002700
:101800000BF13C0BDBF80000C0000BD4DBF8001040
:1018100041F08051CBF80010DBF80000012700F008
:10182000805000906B4E3068C00510D4306840F492
:1018300080703060FFF790FD009005E0FFF78CFDB1
:101840000099401A022850D83068C005F6D55E4E7F
:10185000A0686C3601280FD00528306810D020F021
:1018600001003060306820F004003060A068B8B13A
:10187000FFF772FD00900FE0306840F00100F4E7E0
:1018800040F004003060F7E7FFF766FD0099411A69
:1018900041F28830814266D830688007F4D50EE086
:1018A000FFF75AFD009007E0FFF756FD0099411A37
:1018B00041F28830814256D830688007F4D42FB185
:1018C000DBF8001021F08051CBF80010A069C8B3FC
:1018D0003D49091D0968C1F3810102294AD0022846
:1018E000504607D0C8F8600000E03CE0FFF734FD48
:1018F00004463BE04746C8F86000FFF72DFD06466A
:1019000005E000BFFFF728FD801B02282BD82868C0
:101910008001F7D4D4E907010843A16A2E4A490897
:1019200002EB0141626A41EA8211084394F82C10EB
:1019300040EA0161C9F8001001203866FFF70CFD8C
:10194000044606E03EE000BFFFF706FD001B02284C
:1019500009D828688001F7D534E000BFFFF7FCFC08
:10196000001B022802D90320BDE8F88F28688001F7
:10197000F4D427E00128F7D0D9F80000E26900F498
:10198000800191421CD1226A00F03F01914217D19F
:1019900047F6C071626A0140B1EB821F10D1A26AA2
:1019A0004FF0FF3300F4403103EB5202B1EB024F32
:1019B00006D194F82C1000F07060B0EB016F01D0EC
:1019C0000120D1E70020CFE7043802400000474261
:1019D000800E4742007000400000FFFF10B5401E1F
:1019E000B0F1807F01D3012010BD4FF0E024606191
:1019F0000F21601701F0BEFD0020A06107202061CB
:101A0000002010BD7047704770B590F83C20012A47
:101A100032D0012480F83C40022280F83D20036847
:101A20005A689D6822F070060A6832435A60134B68
:101A300002689A4214D0B2F1804F11D0104B9A42F2
:101A40000ED0104B9A420BD00F4B9A4208D00F4B3E
:101A50009A4205D00E4B9A4202D00E4B9A4204D1C4
:101A6000496825F080031943916080F83D400021CA
:101A700080F83C10084670BD022070BD0000014097
:101A80000004004000080040000C00400004014039
:101A9000004001400018004010B5040003D094F845
:101AA0003D0010B107E0012010BD002084F83C008B
:101AB000204600F01FF8022084F83D00211D206818
:101AC00001F026FA012084F8460084F83E0084F8EC
:101AD0003F0084F8400084F8410084F8420084F814
:101AE000430084F8440084F8450084F83D00002059
:101AF00010BD000008B5234A01682348914207D170
:101B0000016841F002010160006800F002001EE07F
:101B10001E4A914211D1016841F004010160006840
:101B2000002200F00400009001211E20FFF782FC3B
:101B3000BDE808401E20FFF76FBC154A914208D14E
:101B4000016841F008010160006800F008000090A1
:101B500008BD104A914209D10B48001D016841F4AB
:101B600080310160006800F48030F0E70A4A914259
:101B7000EED1016841F040010160006800F04000D2
:101B8000E5E7000000040040403802400008004043
:101B9000000C0040004001400018004090F83D104B
:101BA000012901D001207047022180F83D10016811
:101BB000CA6842F00102CA6000681149884214D024
:101BC000B0F1804F11D00F4988420ED00E498842A3
:101BD0000BD00E49884208D00D49884205D00D49E6
:101BE000884202D00C49884204D1816801F0070183
:101BF000062903D0016841F001010160002070470F
:101C0000000001400004004000080040000C0040BB
:101C100000040140004001400018004070B5044637
:101C200090F83C000025012817D0012684F83C607C
:101C3000022084F83D002068826822F0770222F4B6
:101C40007F4282600868502838D00DDC20284FD0B1
:101C500005DC90B3102811D14AE0022070BD302875
:101C600046D040280AD13BE060282FD070280DD004
:101C7000B0F5805F03D0B0F5005F12D0012584F885
:101C80003D60002084F83C00284670BDCB68D1E957
:101C90000121206801F0ADF92068816841F07701E9
:101CA00009E0CB68D1E90121206801F0A2F92068A0
:101CB000816841F480418160E1E719E0CA684968C0
:101CC000206801F06BFA5021206806E0CA68496874
:101CD000206801F074FA6021206801F094F9CEE7E1
:101CE000CA684968206801F059FA40212068F4E781
:101CF000226801461046F0E7704770B50446006858
:101D000001694FF00005C943890715D4C168C9436B
:101D1000890711D4E91E01610120207720688069BC
:101D20008007204602D0FFF7E7FF04E000F006F945
:101D3000204600F098F9257720680169C9434907D2
:101D400017D4C168C943490713D46FF00401016176
:101D5000022020772068806910F4407F204602D05E
:101D6000FFF7CAFF04E000F0E9F8204600F07BF935
:101D7000257720680169C943090716D4C168C9439A
:101D8000090712D46FF00801016104202077206850
:101D9000C0698007204602D0FFF7AEFF04E000F0E4
:101DA000CDF8204600F05FF9257720680169C94326
:101DB000C90617D4C168C943C90613D46FF010010E
:101DC0000161082020772068C06910F4407F204618
:101DD00002D0FFF791FF04E000F0B0F8204600F0D9
:101DE00042F9257720680169C943C90708D1C1684C
:101DF000C943C90704D1891E0161204600F098F942
:101E000020680169C943090609D4C168C9430906A4
:101E100005D46FF0800101612046FFF7F3FD2068D3
:101E20000169C943490609D4C168C943490605D4B3
:101E30006FF040010161204600F0E8F92068016977
:101E4000C94389060BD4C168C943890607D46FF01A
:101E5000200101612046BDE87040FFF7D4BD70BD90
:101E600030B587B0044614216846FEF7E3F92468CC
:101E70002A4D00222A4902232A48AC420DD10C687F
:101E800044F002040C60096801F002010591302160
:101E90000091CDE90132694610E0234DAC4213D1E7
:101EA000086840F0010008600868694600F0010019
:101EB00005900C200090CDE901321C48CDE90323A8
:101EC000FFF748F907B030BD194DAC4211D1086891
:101ED00040F0100008600868694600F010000590A6
:101EE00060200090CDE901320320CDE903201148A4
:101EF000E6E7114DAC42E5D10C6844F002040C60F9
:101F0000096801F002010591E9000091CDE9013273
:101F10000921CDE903216946D2E700000004004011
:101F20003038024000040240000C00400000024033
:101F3000004001400010024000180040704770B59A
:101F4000044690F83C0000260D4601280FD00120E1
:101F500084F83C006AB1042A1DD0082A2FD00C2A2C
:101F60003FD00126002084F83C00304670BD02209E
:101F700070BD206801F050F82068816941F00801C7
:101F800081612068816921F0040181612068816993
:101F90002A69114311E0206801F06EF82068816918
:101FA00041F4006181612068816921F4806181616F
:101FB000206881692A6941EA02218161D2E72068AB
:101FC00001F090F82068C16941F00801C161206802
:101FD000C16921F00401C1612068C1692A69114306
:101FE00011E0206801F0B2F82068C16941F4006195
:101FF000C1612068C16921F48061C1612068C16943
:102000002A6941EA0221C161ACE710B5040003D09E
:1020100094F83D0010B107E0012010BD002084F8C5
:102020003C00204600F01EF8022084F83D00211DEF
:10203000206800F06DFF012084F8460084F83E001F
:1020400084F83F0084F8400084F8410084F842009E
:1020500084F8430084F8440084F8450084F83D0087
:10206000002010BD7047704710B50446022249B1E8
:1020700004290ED0082913D094F84100012816D065
:10208000012010BD94F83E000128F9D184F83E20CB
:102090000FE094F83F000128F2D184F83F2008E0D7
:1020A00094F840000128EBD184F8402001E084F846
:1020B00041200122206800F08FFF16492068164A4F
:1020C000884201D0904203D1436C43F400434364FF
:1020D0002068884213D0B0F1804F10D00F49884259
:1020E0000DD00F4988420AD00E49884207D090424D
:1020F00005D00D49884202D00C49884204D181683C
:1021000001F00701062903D0016841F001010160D7
:10211000002010BD00000140000401400004004008
:1021200000080040000C0040004001400018004042
:1021300010B5344900680968884262D101F0CAFFCD
:10214000314C04F1200090EC030A01F0AFFE94ED55
:102150000F0A00F003FC94ED100A00F0A3FC94EDCC
:10216000110A00F043FD94ED120A00F0E3FD04F1C2
:102170008000244990ED140A9031BCEEC00A0B682F
:1021800010EE102A5A6390ED150A0968BCEEC00AD9
:1021900010EE102A8A6390ED160A1A49BCEEC00AA6
:1021A00048310B6810EE102ADA6390ED170A0968BF
:1021B000BCEEC00A10EE102A0A6490ED180A11490C
:1021C000BCEEC00AD8310B6810EE102A5A6390EDAD
:1021D000190A0968BCEEC00A10EE102A8A6390ED55
:1021E0001A0A0849BCEEC00A48390B6810EE102ADA
:1021F0005A6390ED1B0A0968BCEEC00A10EE100A83
:10220000886310BD780100200000002070477047EF
:10221000704770B5040004D094F83D00002510B15B
:1022200006E0012070BD84F83C50204600F022F802
:10223000242084F83D002068C16821F40051C16069
:10224000204601F077F82068016921F4904101618E
:102250002068416921F02A0141612068C16841F488
:102260000051C1602564202084F83D0084F83E00C0
:10227000002070BD70B586B0064614216846FDF793
:10228000D9FF1F493068884238D11E4800250168AF
:1022900041F480210160006800F480200590194815
:1022A0001038016841F0020101600068694600F0E1
:1022B000020005904FF4406000900220CDE9010536
:1022C00003200390072004900F48FEF743FF104CB3
:1022D0000E4820604FF00060C4E901054014C4E9D5
:1022E00003506561A561E561256220466562FEF7E0
:1022F00029FE08B1FEF754FDB463A66306B070BDB5
:10230000004800404038024000040240286002407B
:102310000403002090F83E30202B0ED159B152B169
:1023200090F83C30012B08D0012380F83C3000238A
:10233000036301F085B80120704702207047000058
:1023400070B521490068096888423BD11F4C1E4A7C
:1023500044326168002521B900201554401C192819
:10236000FBDD20785054491C6160782809D116485B
:10237000443001F011F951EC100BFEF799F865604B
:1023800020622078792809D10F48443001F004F9FF
:1023900051EC100BFEF78CF86560606220787728AE
:1023A00009D10948443001F0F7F851EC100BFEF761
:1023B0007FF86560A062BDE87040012203490248D1
:1023C000FFF7A8BF70BD00009802002000000020A9
:1023D000704700002DE9F843044690F83D001F4681
:1023E00016460D4620284CD1C5B1BEB194F83C002C
:1023F000012846D0012084F83C004FF00008C4F8C2
:102400004080212084F83D00FEF7A6FFA684814687
:10241000E684A068B0F5805F03D004E00120BDE849
:10242000F883206928B12E465FF0000584F83C80CF
:102430000EE00026FAE78021204601F049F8A0B915
:10244000AEB116F8010B21684860E08C401EE084B4
:10245000E08C4B464FF0000200970028EBD14FF084
:102460004001204601F034F830B10320D7E735F8B9
:10247000020BC0F30800E6E7202084F83D000020AE
:10248000CDE70220CBE7FEE710B50D4C0122042179
:102490002046FEF75CFF012208212046FEF757FF89
:1024A00000210848FFF7E0FD04210648FFF7DCFDA6
:1024B000044900200A6850630968886310BD000061
:1024C000001002400802002010B50D4C0122D1027C
:1024D0002046FEF73CFF012291022046FEF737FF1F
:1024E00008210848FFF7C0FD0C210648FFF7BCFD96
:1024F000044900200A68D0630968086410BD000020
:1025000000100240C001002010B50D4C0122110244
:102510002046FEF71CFF012251022046FEF717FF5E
:1025200000210848FFF7A0FD04210648FFF79CFDA5
:10253000044900200A6850630968886310BD0000E0
:10254000000C02405002002010B5012208210B4867
:10255000FEF7FDFE0122D1030948FEF7F8FE002137
:102560000848FFF781FD04210648FFF77DFD054877
:102570000021026851630068816310BD00040240BD
:1025800000180240300100202DE9F04387B01421EB
:102590006846FDF74FFE59480024016841F01001DC
:1025A0000160016801F010010591016841F08001AE
:1025B0000160016801F080010591016841F00101AD
:1025C0000160016801F001010591016841F002011B
:1025D0000160016801F002010591016841F0080104
:1025E0000160016801F008010591016841F00401F2
:1025F00001600068DFF8088100F0040040F60C4537
:102600000590012229464046FEF7A1FE3D4E0022DC
:1026100040213046FEF79BFEDFF8EC904FF4467702
:10262000012239464846FEF792FE00950125CDE984
:102630000154694640460394FEF78CFD3020CDE9F5
:102640000004694630460294FEF784FD4020009065
:10265000CDE90154694630460394FEF77BFDA8039B
:102660004FF40416CDE90006694602954046FEF790
:1026700071FD48F20200CDE900046946404602942B
:10268000FEF768FD0097CDE901546946484603947A
:10269000FEF760FD2803CDE900066946029548462D
:1026A000FEF758FD42F20200CDE9000469464846B3
:1026B0000294FEF74FFDE802CDE900066946029557
:1026C0001248FEF747FD6802CDE90006694602950B
:1026D0000F48FEF73FFD002202211720FEF7AAFE59
:1026E0001720FEF799FE002202212820FEF7A2FE05
:1026F0002820FEF791FE07B0BDE8F0833038024095
:102700000010024000000240000C0240000802409D
:102710000004024010B58CB000240794089409947A
:102720001C2168460A94FDF785FD1648144901608E
:102730001021C0E9011440F2E731C0E903148461BB
:10274000FFF7AAF94FF48050079007A90D48FFF74B
:1027500065FA0C48FFF759FC6020CDE900040294AB
:102760000022694607480494FFF7E9FB0422694602
:102770000448FFF7E4FB0348FFF772FB0CB010BD01
:10278000001800405002002010B58EB000240794BD
:10279000089409940A940B941C2168460C94FDF744
:1027A00049FD1948174901601021C0E9011440F2A0
:1027B000E731C0E903148461FFF76EF94FF48050EC
:1027C000079007A91048FFF729FA0F48FFF71DFCEB
:1027D0000B940BA90C480C94FFF716F96020CDE977
:1027E000000402940022694607480494FFF7A7FBFF
:1027F000042269460448FFF7A2FB0348FFF730FBB9
:102800000EB010BD000400403001002010B586B0AD
:1028100000241248009401940294039404940E49F5
:10282000059401604FF47A51C0E901146321C0E9B5
:1028300003148461FFF730F94FF48050009069462B
:102840000648FFF7EBF9049404A904480594FFF740
:10285000DBF806B010BD0000000800407801002041
:1028600010B58EB000240794089409940A940B9430
:102870001C2168460C94FDF7DDFC194817490160DE
:102880001021C0E9011440F2E731C0E9031484616A
:10289000FFF702F94FF48050079007A91048FFF79F
:1028A000BDF90F48FFF7B1FB0B940BA90C480C9432
:1028B000FFF7AAF86020CDE90004029408226946D7
:1028C00007480494FFF73BFB0C2269460448FFF7D6
:1028D00036FB0348FFF7C4FA0EB010BD000C0040F1
:1028E000C001002010B58CB000240794089409940E
:1028F0001C2168460A94FDF79DFC164814490160A6
:102900001021C0E9011440F2E731C0E903148461E9
:10291000FFF7C2F84FF48050079007A90D48FFF762
:102920007DF90C48FFF771FB6020CDE900040294AB
:102930000022694607480494FFF701FB0422694618
:102940000448FFF7FCFA0348FFF78AFA0CB010BD01
:102950000040014008020020FEE7FEE770B5474D49
:102960002DED068BB0EE408A95ED030AB8EEC00A55
:1029700010EE100AFDF789FD9FED411B53EC112B62
:10298000FDF711FDFDF794FD00EE100ADFED3E8A24
:10299000B5EEC08A0020F1EE10FA85ED130A05F1BC
:1029A0008004E86006D1C4ED148AC4ED158ABDEC3C
:1029B000068B70BD38EE408A85ED178A94ED010ACA
:1029C00020EE08AA84ED04AA94ED020A20EE080A7B
:1029D00010EE100AFDF759FD9FED2C1B53EC112B47
:1029E000FDF7E1FC41EC190B206AFDF74EFD53ECBD
:1029F000192BFDF731FCFDF75BFD00EE100A2549B0
:102A000084ED080AD5ED1B0A94ED031A3AEE000A8C
:102A100078EE600A60EE810AB2EE041A60EE810A76
:102A2000C4ED0C0A30EE200AD4ED100A30EE200A74
:102A300010EE100A84ED100A884203DD9FED160A9D
:102A400084ED100A10EE100A1449884203D99FED54
:102A5000140A84ED100AB5EEC00AF1EE10FA04DB98
:102A6000C4ED148A84ED150A05E0B1EE400A84ED48
:102A7000140AC4ED158A85ED1B8A98E70000002032
:102A8000AC1C5A643BDF0440000000009A999999FD
:102A90009999B93F00007A4400007A4400007AC452
:102AA00000007AC470B5474D2DED068BB0EE408A1C
:102AB00095ED040AB8EEC00A10EE100AFDF7E5FC29
:102AC0009FED411B53EC112BFDF76DFCFDF7F0FC66
:102AD00000EE100ADFED3E8AB5EEC08A0020F1EE6E
:102AE00010FA85ED140A05F18004286106D1C4EDC1
:102AF000168AC4ED178ABDEC068B70BD38EE408A8D
:102B000085ED188A94ED010A20EE08AA84ED05AA45
:102B100094ED020A20EE080A10EE100AFDF7B5FC4B
:102B20009FED2C1B53EC112BFDF73DFC41EC190BD9
:102B3000606AFDF7AAFC53EC192BFDF78DFBFDF73E
:102B4000B7FC00EE100A254984ED090AD5ED1C0AF0
:102B500094ED031A3AEE000A78EE600A60EE810AFC
:102B6000B2EE041A60EE810AC4ED0D0A30EE200ABE
:102B7000D4ED110A30EE200A10EE100A84ED110A8D
:102B8000884203DD9FED160A84ED110A10EE100A4B
:102B90001449884203D99FED140A84ED110AB5EE59
:102BA000C00AF1EE10FA04DB84ED160AC4ED178AB0
:102BB00005E0C4ED168AB1EE400A84ED170A85EDF2
:102BC0001C8A98E700000020AC1C5A643BDF0440DC
:102BD000000000009A9999999999B93F00007A44A8
:102BE00000007A4400007AC400007AC470B5474DF2
:102BF0002DED068BB0EE408A95ED050AB8EEC00AC1
:102C000010EE100AFDF741FC9FED411B53EC112B18
:102C1000FDF7C9FBFDF74CFC00EE100ADFED3E8A24
:102C2000B5EEC08A0020F1EE10FA85ED150A05F127
:102C30008004686106D1C4ED188AC4ED198ABDEC20
:102C4000068B70BD38EE408A85ED198A94ED010A35
:102C500020EE08AA84ED06AA94ED020A20EE080AE6
:102C600010EE100AFDF711FC9FED2C1B53EC112BFD
:102C7000FDF799FB41EC190BA06AFDF706FC53EC3C
:102C8000192BFDF7E9FAFDF713FC00EE100A2549B0
:102C900084ED0A0AD5ED1D0A94ED031A3AEE000AF6
:102CA00078EE600A60EE810AB2EE041A60EE810AE4
:102CB000C4ED0E0A30EE200AD4ED120A30EE200ADE
:102CC00010EE100A84ED120A884203DD9FED160A09
:102CD00084ED120A10EE100A1449884203D99FEDC0
:102CE000140A84ED120AB5EEC00AF1EE10FA04DB04
:102CF000C4ED188A84ED190A05E0B1EE400A84EDAE
:102D0000180AC4ED198A85ED1D8A98E70000002095
:102D1000AC1C5A643BDF0440000000009A9999996A
:102D20009999B93F00007A4400007A4400007AC4BF
:102D300000007AC470B5474D2DED068BB0EE408A89
:102D400095ED060AB8EEC00A10EE100AFDF79DFBDD
:102D50009FED411B53EC112BFDF725FBFDF7A8FB65
:102D600000EE100ADFED3E8AB5EEC08A0020F1EEDB
:102D700010FA85ED160A05F18004A86106D1C4EDAC
:102D80001A8AC4ED1B8ABDEC068B70BD38EE408AF2
:102D900085ED1A8A94ED010A20EE08AA84ED07AAAF
:102DA00094ED020A20EE080A10EE100AFDF76DFB02
:102DB0009FED2C1B53EC112BFDF7F5FA41EC190B91
:102DC000E06AFDF762FB53EC192BFDF745FAFDF7BE
:102DD0006FFB00EE100A254984ED0B0AD5ED1E0AA3
:102DE00094ED031A3AEE000A78EE600A60EE810A6A
:102DF000B2EE041A60EE810AC4ED0F0A30EE200A2A
:102E0000D4ED130A30EE200A10EE100A84ED130AF6
:102E1000884203DD9FED160A84ED130A10EE100AB6
:102E20001449884203D99FED140A84ED130AB5EEC4
:102E3000C00AF1EE10FA04DB84ED1A0AC4ED1B8A15
:102E400005E0C4ED1A8AB1EE400A84ED1B0A85ED57
:102E50001E8A98E700000020AC1C5A643BDF044047
:102E6000000000009A9999999999B93F00007A4415
:102E700000007A4400007AC400007AC470477047AA
:102E8000FEF770BA10B592B030216846FDF7D2F95E
:102E900014210CA8FDF7CEF914480024016841F074
:102EA00080510160006800F0805011901048016866
:102EB00041F4804101600068069400F48040119064
:102EC0000220009001200390102004906846FEF735
:102ED000CFFB0F20CDE90C040E940F9400210CA819
:102EE0001094FEF7D9FA12B010BD0000403802402D
:102EF000007000400248016841F4700101607047B1
:102F000088ED00E00148FEF7F8BE000078010020DF
:102F1000F0B50268254C264D264E274F274B4FF023
:102F2000804CA04209D0604507D0A84205D0B042ED
:102F300003D0B84201D0984204D122F0700E4A6802
:102F400042EA0E02A0421BD0604519D0A84217D019
:102F5000B04215D0B84213D0984211D0184DA842B3
:102F60000ED0184DA8420BD0174DA84208D0174DCF
:102F7000A84205D0164DA84202D0164DA84203D152
:102F800022F44075CA682A434D6922F080022A4320
:102F900002608A68C2620A688262A04201D09842D6
:102FA00001D10969016301214161F0BD00000140C7
:102FB0000004004000080040000C004000040140F4
:102FC000004001400044014000480140001800401A
:102FD000001C00400020004010B501F01F0301213B
:102FE000046A99408C430462016A9A401143016269
:102FF00010BD10B5846842EA032224F47F440A43DA
:103000002243826010BD826822F070020A4342F0BF
:103010000701816070470000F0B5026A22F00102EA
:103020000262036A42688469124E24F073050C68D8
:103030002C4323F002058B682B430D4DA84201D091
:10304000B04205D123F00807CB683B4323F00403CB
:10305000A84201D0B04205D14D6922F44072154317
:103060008A692A4342608461496841630362F0BD12
:103070000000014000040140F0B5026A22F0100295
:103080000262026A436884690D6824F4E64444EAF3
:1030900005248D6822F0200242EA05120F4D104EE1
:1030A000A84201D0B04206D1CF6822F0800242EAA5
:1030B000071222F04002A84201D0B04207D14D6968
:1030C00023F4406343EA85038D6943EA8503436043
:1030D0008461496881630262F0BD00000000014024
:1030E00000040140F0B5026A22F480720262026AB2
:1030F0004368C46922F4007224F073050C68124E10
:103100002C438D6842EA05220E4DA84201D0B04200
:1031100006D1CF6822F4006242EA072222F48062DC
:10312000A84201D0B04207D14D6923F4405343EA8D
:1031300005138D6943EA05134360C4614968C1639F
:103140000262F0BD000001400004014030B5026A97
:1031500022F480520262046A4268C3690D6823F453
:10316000E64343EA05238D6824F4005444EA053419
:10317000084DA84202D0084DA84204D14D6922F45E
:10318000804242EA85124260C36149680164046278
:1031900030BD0000000001400004014010B5036A8A
:1031A000046A24F001040462846924F0F00444EA0F
:1031B000021423F00A020A438461026210BD10B5B2
:1031C000036A23F0100303628369046A23F47043E3
:1031D00043EA023224F0A00343EA01118261016252
:1031E00010BD70B5846B2068406994F83D10C0F341
:1031F000C0100025212904D118B1E584204600F033
:103200008AF82068406994F83E10C0F380102229A3
:1032100004D118B1E585204600F056F8206C40F046
:10322000100020642046FEF7F3FF70BD10B5014684
:10323000806B09680968C9052FD40021C185016820
:103240000C3151E8002F22F4807241E80023002B5A
:10325000F5D10168143151E8002F22F0010241E854
:103260000023002BF5D10168143151E8002F22F022
:10327000400241E80023002BF5D1202180F83E10C8
:10328000016B012909D101680C3151E8002F22F0AE
:10329000100241E80023002BF5D1016B012902D077
:1032A000FFF74EF810BD818DFEF7B1FF10BD10B5D0
:1032B000806B016B012902D0FFF78AF810BD818D68
:1032C0004908FEF7A4FF10BD01680C3151E8002F3A
:1032D00022F4907241E80023002BF5D101681431EB
:1032E00051E8002F22F0010241E80023002BF5D124
:1032F000016B012909D101680C3151E8002F22F03E
:10330000100241E80023002BF5D1202180F83E1067
:1033100000210163704701680C3151E8002F22F051
:10332000C00241E80023002BF5D1202180F83D1098
:103330007047000070B5044600680169E26821F436
:103340004051114301612169A068E2690843616944
:10335000114308432168CA6849F20C639A43024347
:10336000CA6020684169A26921F44071114341613A
:1033700031492068884202D03049884202D1FEF7A4
:1033800035F901E0FEF722F9E269002319216425ED
:103390003226B2F5004F626828D0A0FB0101930FDE
:1033A0009200FCF70FFF0146B0FBF5F06FF018023A
:1033B000504301EB800006EB0010B0FBF5F000F08D
:1033C000F002B1FBF5F002EB0012B1FBF5F06FF08B
:1033D0001803584301EB800006EB0010B0FBF5F03A
:1033E00000F00F0021681044886070BDA0FB01014F
:1033F00092185B41FCF7E6FE0146B0FBF5F00201D6
:10340000B1FBF5F06FF01803584301EB800006EBB9
:10341000C000B0FBF5F000F0F80002EB4002B1FB99
:10342000F5F0584301EB800006EBC000B0FBF5F06F
:1034300000F00700D6E70000001001400014014032
:1034400038B5816282850025134604460564222032
:1034500084F83E00A26B1B48D063A26B1A4810642C
:10346000A26B1A48D064A06B0A4605652168A06B60
:10347000091DFDF7D1FD206801684068009084F8BF
:103480003C5020680C3050E8001F41F4807140E847
:103490000012002AF5D12068143050E8001F41F0D6
:1034A000010140E80012002AF5D12068143050E8EC
:1034B000001F41F0400140E80012002AF5D1002031
:1034C00038BD00002D320008AF320008E33100089B
:1034D0002DE9F041984617460E460446069D27E022
:1034E000681C25D02DB1FDF737FFA0EB0800A842DE
:1034F0001ED920680C3050E8001F21F4D07140E83C
:103500000012002AF5D12068143050E8001F21F085
:10351000010140E80012002AF5D1202084F83D0086
:1035200084F83E00002084F83C000320BDE8F081D0
:103530002068006836EA000004D00020B842CFD0EE
:103540000020F3E70120F9E7FEE700000FB4084B85
:1035500010B504A902AA039800F020F9044602A9B4
:10356000002000F09EFC204610BC5DF814FB00001B
:10357000A33E00080907090E002804DB00F1E02043
:1035800080F80014704700F00F0000F1E02080F890
:10359000141D70470000000030B583B0044600F0F1
:1035A00017F89FED090B05468DED000B0022214613
:1035B0006846FCF7FCFF284600F020F89DED000B64
:1035C00003B030BD0000000000000000000000005B
:1035D00001480068704700002C01002002E008C884
:1035E000121F08C1002AFAD170477047002001E07D
:1035F00001C1121F002AFBD1704700000149086079
:10360000704700002C0100202DE9FF5F82B00021EF
:10361000DDE90430020DDDF840B0034318D044F674
:103620001050A2F2FF3242431514119801281FD006
:10363000A5EB0B00401C5FEA000A4FF000064E4F5E
:10364000DFF83891B046504615D5CAF1000413E0B2
:10365000119801244AA3012801D16FEA0B010298B5
:10366000119AC0E90031C0E9024206B0BDE8F09FFE
:10367000CBF10000DFE704460021404A491842EB45
:103680000450CDE9001012E0E00707D032463B4677
:1036900040464946FCF787FE8046894632463B460F
:1036A00010461946FCF77FFE06460F466410002CB4
:1036B000EAD1DDE90401DDE90023BAF1000F06DA01
:1036C000FCF771FE42464B46FCF76DFE05E0FDF748
:1036D00035F842464B46FDF731F804460E460022C7
:1036E000284BFDF7B3F803D84FF0FF30014607E051
:1036F0000022254B20463146FCF7AEFDFDF78DF844
:10370000102409E0002C0ADB0A220023FCF75AFDF2
:10371000039B30321A55641E50EA0102F2D1641C38
:10372000039AC4F111031444119A012A03D001220F
:1037300008430DD10AE0084304D000204FF0110BDC
:10374000119072E7A3EB0B056D1E0DE05B4504DDE8
:103750004FF0000205F1010504E003DA4FF000022A
:10376000A5F10105002AECD002981199C0E90231B7
:10377000C0E9004579E70000000014400000F03F78
:10378000300000000000F0430000E03F30380A281D
:1037900001D2012070470020704700002DE9FF4F43
:1037A00095B09A46884606460025EEE1252877D151
:1037B00000242746F94A0121039400E0044316F847
:1037C000013F203B01FA03F01042F7D130782A285C
:1037D00011D06FF02F033078A0F13002092A16D8EB
:1037E000039A44F0020402EB820203EB420210440B
:1037F000761C0390EFE758F8042B0392002A03DAB3
:10380000504244F40054039044F00204761C307893
:103810002E2816D116F8010F44F004042A280DD0E2
:103820006FF02F023078A0F13003092B09D807EB95
:10383000870302EB4303C718761CF3E758F8047BB1
:10384000761C30786C280FD006DC4C2817D06828FE
:103850000DD06A2814D104E0742810D07A280FD132
:103860000DE044F400140AE044F4801401E044F450
:1038700040147278824202D104F58014761C761CC2
:10388000307866280BD013DC582877D009DC002864
:1038900075D04528F6D04628F4D047281AD193E1B0
:1038A00018E0632835D0642879D0652812D18BE1DF
:1038B000702873D008DC6728F1D069286FD06E2893
:1038C0000DD06F2806D1ACE073282CD0752874D0A9
:1038D000782853D05246179990476D1C54E1C4F391
:1038E0000250022809D003280DD0D8F8001004286F
:1038F0000DD00D6008F1040846E1D8F80010EA1771
:10390000C1E90052F6E7D8F800100D80F2E70D701B
:10391000F0E718F8041B8DF8001000208DF8010066
:10392000EB46012003E058F804BB4FF0FF3061077D
:103930004FF0000102D40DE009F101018946B942BE
:103940000FDA8145F8DB1BF809100029F4D108E0F3
:1039500009F1010189468142FADB1BF809100029AF
:10396000F6D103985346A0EB090721463846179A2B
:1039700000F080FA284400EB090507E044E008E184
:103980000DE01BF8010B524617999047B9F1010958
:10399000F7D2534621463846179AF2E039E00A2119
:1039A000C4F302524FF0000B0091022A06D058F8DF
:1039B000040BC117032A09D00AE023E008F107002D
:1039C00020F00702F2E80201904605E000B2C117BC
:1039D000042A01D140B2C117002906DA0A460021A3
:1039E000404261EB02012D2202E0220504D52B2288
:1039F0008DF80420012203E0E20701D02022F7E73E
:103A0000914657E00A2100E010214FF0000B009191
:103A10000BE010214FF0000B44F004040827009144
:103A200003E008204FF0000B0090C4F30252022A7A
:103A300005D058F8040B0021032A08D008E008F14B
:103A4000070020F00702F2E80201904603E080B28E
:103A5000042A00D1C0B24FF0000922072AD53278DB
:103A6000702A07D0DDF800C08CF0100C5CEA0B0C5B
:103A700005D00EE040228DF80420012208E050EA33
:103A8000010306D030238DF804308DF80520022282
:103A90009146009B83F0080353EA0B030AD150EAD6
:103AA000010201D1620705D530228DF804204FF0C4
:103AB00001097F1E3278582A04D039A20C920CAA30
:103AC00002920BE03BA2F9E75B46009AFCF77AFB17
:103AD0000C9B9B5C029A521E0292137050EA0102E8
:103AE000F2D1029804A9081A00F1200B600702D550
:103AF00024F4803400E001275F4502DDA7EB0B00D2
:103B000000E0002000EB0B01009003984944401AAC
:103B10000390E00306D453462146179A039800F019
:103B2000A9F90544002706E001A85246C05D17998F
:103B300090476D1C7F1C4F45F6DBE0030CD55346C8
:103B40002146179A039800F095F9054404E03020C7
:103B50005246179990476D1C0099481E0090002905
:103B6000F5DC08E00298029952460078491C02915F
:103B7000179990476D1CBBF10001ABF1010BF1DC13
:103B80005BE100F065F90544761C307800287FF48D
:103B90000DAE19B02846BDE8F08F000009280100DD
:103BA00030313233343536373839616263646566B3
:103BB0000000000030313233343536373839414275
:103BC0004344454600000000600700D4062708F182
:103BD000070020F00700F0E80223804603F0004CC5
:103BE0005FEA0C0001D097A009E0200501D596A05E
:103BF00005E0E00701D095A001E0AFF24C00139082
:103C0000307823F0004365280CD006DC452809D025
:103C100046281DD047287FD13BE0662818D067286A
:103C20007AD136E00021112F01DB112000E0781C51
:103C3000CDE9000104A90CA8FFF7E6FCDDE90D01C0
:103C40000C9A4FF0000B07F10109109200914EE021
:103C50004FF000400097CDE9011004A90CA8FFF730
:103C6000D3FCDDE90D020C9B0F994FF0000B914640
:103C70001093009211B9791C00EB0109B7EB090010
:103C800003D4C0F1FF3B07F10109A9EB0700019044
:103C900042E0012F00DA01270021112F01DD112060
:103CA00000E03846CDE9000104A90CA8FFF7ACFC00
:103CB000DDE90D010C9A00914FF0000BB94610920E
:103CC00021070FD4009A4A4503DA914601E0A9F191
:103CD0000109B9F1010F05DD109AA9F10101515C4B
:103CE0003029F4D0B84202DA10F1040F03DA0121CE
:103CF000CDE9011010E0002803DC8344A9EB0001AA
:103D000002E0411C494500DD8946A0EB0B00401C48
:103D100001904FF000400290200705D401984845DB
:103D200002DB4FF0FF30019000208DF84B0002982D
:103D30000DF14B07B0F1004F25D002200C902B2045
:103D40000D90029800280CDA404202902D200D9030
:103D500007E00A210298FCF7C7FB3031029007F810
:103D6000011D0C99481E0C900029F2DC02980028D5
:103D7000EFD1791E0D980870307800F0200040F0E7
:103D8000450007F8020D11A8C01BC01D0290139832
:103D9000007800B1012000EB0901019801EBE0710E
:103DA000029801440398401A401E0390E00306D491
:103DB00053462146179A039800F05CF8054413987F
:103DC000007818B15246179990476D1CE00323D52F
:103DD00053462146179A039800F04CF805441BE01F
:103DE000BBF1000F07DB0098584504DD10981799C8
:103DF00010F80B0001E017993020524690470198C7
:103E00000BF1010B401E05F10105019004D12E209C
:103E10005246179990476D1CB9F10001A9F10109AB
:103E2000DEDC05E017F8010B5246179990476D1C30
:103E30000299481E02900029F4DC53462146179A45
:103E400003989EE62D0000002B00000020000000DB
:103E50002DE9F041044600251E461746880404D487
:103E600005E039462020B0476D1C641EF9D5284670
:103E7000BDE8F0812DE9F041044600251E4690463C
:103E8000C80301D5302700E02027880404D505E0C9
:103E900041463846B0476D1C641EF9D52846BDE83A
:103EA000F0810A68531C0B6010707047254870EE53
:103EB000602A00F18001D0ED1F1A91ED002A30EE4A
:103EC000200AB0EE623A31EE822ADFED1F1AF0EEE0
:103ED000400A02EE413A42EE010A02EE410A42EE87
:103EE000012A63EE213A20EEA13A20EE214AC0EDEC
:103EF0000B3A22EEA11A80ED0C3A80ED0D4A80EDCE
:103F00000E1A9FED120A90ED072AF0EE000A63EEFA
:103F1000801A62EE200A81EEA02A63EE001A80ED7C
:103F20000F2A81EEA02A64EE001A21EE000A80EE2C
:103F3000201A80ED102A81EEA02A80ED112A80ED52
:103F4000121A704700000020ABAAA6410000704280
:103F500010B5274C206AFCF798FA41EC100B25A10C
:103F600053EC102B2748FFF7F1FA2648FCF76DF9C0
:103F7000244982B20A23A1F15800FEF72BFA6420EB
:103F8000FDF782F8606AFCF780FA41EC100B1EA185
:103F900053EC102B1B48FFF7D9FA1A48FCF755F9D8
:103FA000184982B20A23A1F15800FEF713FA6420DF
:103FB000FDF76AF8A06AFCF768FA41EC100B16A14D
:103FC00053EC102B0F48FFF7C1FA0E48FCF73DF9F0
:103FD0000C4982B20A23A1F15800FEF7FBF96420D4
:103FE000FDF752F8BDE810404FF4FA60FDF74CB809
:103FF0000000002076785F726566203D20252E3215
:10400000660A0000F002002076795F726566203D46
:1040100020252E32660A0000775F726566203D20FB
:10402000252E32660A00000008B5FDF7A3F9FEF759
:1040300029FFFEF7A9FA22480024016841F4001183
:1040400001600068224600F40010009021460C2018
:10405000FDF7F0F90C20FDF7DFF9FEF795FBFEF711
:10406000FFFBFEF73FFCFEF755FB174815490160C3
:104070004FF4E131C0E901140C21C460C0E90441EE
:104080008461C461FEF7C5F8FEF7C0FB0F48FDF779
:1040900085FD01220E490C48FEF73CF9FEF7F4F9C4
:1040A000FEF712FAFEF730FAFEF74EFA084DAC6052
:1040B00000F09EF8A8680028FAD1FFF749FFF7E75B
:1040C000303802400048004098020020780100206B
:1040D0000000002010B5414C2DED068B94ED030A35
:1040E000B8EEC00A10EE100AFCF7CFF99FED3C8B3A
:1040F00053EC182BFCF757F9FCF7DAF90AEE100A23
:1041000084ED13AA94ED040AB8EEC00A10EE100A6A
:10411000FCF7BBF953EC182BFCF745F9FCF7C8F991
:1041200009EE100A84ED149A94ED050AB8EEC00A5F
:1041300010EE100AFCF7A9F953EC182BFCF733F931
:10414000FCF7B6F909EE900AC4ED159A94ED060A4B
:10415000B8EEC00A10EE100AFCF797F953EC182BD2
:10416000FCF721F9FCF7A4F901EE100AB0EE000A01
:1041700084ED161AD4ED070A04F1800060EE800A7F
:104180009FED190A20EE8A2A60EE892A20EEA93ACC
:1041900020EE811AC2EE001A82EE802AC1EE000AD9
:1041A000C3EE002A9FED110AC0ED1F0A703021EE08
:1041B000801AC0EC031A103080ED001A22EE001AAB
:1041C00080ED011A22EE801A20EE800A80ED021A9C
:1041D00080ED030ABDEC068B10BD0000000000203E
:1041E000AC1C5A643BDF044000007042A69B443D77
:1041F00070B5144C144DA08A81B22846FDF7A2F880
:104200006061208B81B22846FDF79CF8A06161694E
:10421000012901D021B105E020B9012020610EE083
:10422000012803D02069012809D001E00020206185
:1042300000222846BDE870404021FDF788B80122E1
:10424000F7E7000000010020000002400006101601
:104250000006101600000000000000000102030428
:10426000060708090000000001020304DDDDDDDDB2
:10427000DCBBBBDDDDDDDDDDDDDDDDDD98888888F7
:10428000888888887777777777888888855555569E
:1042900066666666666666666668888883333332F5
:1042A00022222222222222222228888DCC42000889
:1042B00000000020300100008C0C0008F4420008CF
:1042C0003001002038060000EC350008011D055DB6
:1042D000C3F5484000158D5873603E50AA5D3E9A64
:1042E00099993F0AD7A33D6F12033B420192106395
:0442F00024F40000B2
:040000050800018965
:00000001FF
